:020000022000DC
:1070000000000420BD720200E5720200E772020077
:10701000E9720200EB720200ED7202000000000053
:10702000000000000000000000000000EF720200FD
:10703000F172020000000000F3720200F57202001B
:10704000B9AC0200F772020059B10200F7720200F7
:10705000F7720200F7720200DDAF0200F772020061
:10706000F7720200F7720200F7720200F772020074
:10707000F7720200F7720200F7720200F772020064
:10708000F7720200DD8A0200F7720200F772020056
:10709000F7720200F772020075130300F772020024
:1070A000F7720200F7720200F7720200F772020034
:1070B000F7720200F77202000000000000000000FA
:1070C000F7720200F7720200F7720200F772020014
:1070D000F7720200F7720200F7720200F772020004
:1070E000F7720200F7720200F7720200000000005F
:1070F00000000000F772020000000000F7720200BA
:10710000000000000000000000000000000000007F
:10711000000000000000000000000000000000006F
:10712000000000000000000000000000000000005F
:10713000000000000000000000000000000000004F
:10714000000000000000000000000000000000003F
:10715000000000000000000000000000000000002F
:10716000000000000000000000000000000000001F
:10717000000000000000000000000000000000000F
:1071800000000000000000000000000000000000FF
:1071900000000000000000000000000000000000EF
:1071A00000000000000000000000000000000000DF
:1071B00000000000000000000000000000000000CF
:1071C00000000000000000000000000000000000BF
:1071D00000000000000000000000000000000000AF
:1071E000000000000000000000000000000000009F
:1071F000000000000000000000000000000000008F
:1072000010B5054C237833B9044B13B10448AFF3E0
:1072100000800123237010BDD8230020000000004F
:107220006C40030008B5034B1BB103490348AFF39F
:10723000008008BD00000000DC2300206C4003003B
:10724000A3F5803A704700BF174B002B08BF134BC4
:107250009D46FFF7F5FF00218B460F461348144A61
:10726000121A0AF031FA0E4B002B00D098470D4B42
:10727000002B00D098470020002104000D000D488D
:10728000002802D00C48AFF300800AF0DBF92000A0
:10729000290005F0B5F80AF0C1F900BF00000800A8
:1072A000000000000000000000000420D82300209F
:1072B0003436002000000000000000000649074AA4
:1072C000074B9B1A03DD043BC858D050FBDC00F091
:1072D000C5FDFFF7B9FF0000F84103007022002050
:1072E000D8230020FEE7FEE7FEE7FEE7FEE7FEE725
:1072F000FEE7FEE7FEE7FEE7F0B595B01D46164651
:1073000008460C4603F03EFA1A9B0D93CDE908653A
:1073100000252B46082205A920460A958DF82C50F9
:107320000C9503F04BFA079B0293069B03939DF881
:1073300014308DF8115003F00302012A1DD1BDF85D
:107340001420059DC3F3C203C2F383168DF81030D9
:10735000B20008230EA9204603F030FAC5F39525A4
:1073600008AB0093324602AB0EA9284600F0D0FBD2
:10737000204603F00BFA15B0F0BD022AF8D1BDF893
:107380001650C3F3C203C5F389158DF810300827D2
:10739000082D2E4628BF08263B4632460EA9204619
:1073A00003F00CFAAD1B08AB02AA31460EA8374415
:1073B00000F012FC002DEBD1DAE70000014B0122B6
:1073C0001A707047352400207047000070B50E4DCC
:1073D00006460FCD88B06C460FC495E80F00002E0E
:1073E00084E80F00094A0A484FF0060308BF00224C
:1073F0006946009303F0E8FB08B100F095FF054BE8
:107400001E7008B070BD00BF081A0300BD730200F3
:1074100070220020F423002007B5044B0093044A97
:107420004023FFF769FF03B05DF804FB35740200E9
:10743000F523002038B50D480D4C0E4D0023237068
:107440000378EB5CD2B263B1043004F08DFB08B179
:1074500000F06AFF084B1A7812B12378002BFBD09A
:1074600038BD0C3004F0F2F8F1E700BF70220020C4
:1074700035240020A02C0020F423002008B5084863
:10748000084A0378D35C3BB1043004F0DBFABDE872
:1074900008400020FFF79ABF0C3004F06BF8F6E7C5
:1074A00070220020A02C00200120FFF78FBF0000D9
:1074B00008B5FFF7F9FF0448042100F08BFA034BED
:1074C00001225A7108BD00BFCC4103008422002074
:1074D000037813F0040216D003F00303012B03D04A
:1074E000022B09D0012070470A6800880232C0F3DD
:1074F000831002440A60F5E70B684288023303EB0D
:1075000092130B60EEE71046704700002DE9F04F34
:10751000DFF81CA187B00F4600230446861C0DF13E
:10752000070015468DF8073001F05AF9DAF8042003
:107530003A60DAF8083003F580739B1A0AF21C47A8
:107540000AF583690AF21448B3421AD30020002DC9
:1075500069D004F00F039B0143F0050363F30F00B0
:10756000DAF80430DAB2033233444AF822009DF8E4
:107570000700CAF8043001F057F9012007B0BDE850
:10758000F08F0121384602F069FB484602F081FB8A
:10759000404602F07EFBDAF808000290C0B20330E9
:1075A0000AEB800002A9FFF793FF029B30BBDAB21F
:1075B0000AEB8202D16803919A1C0133DBB20AEB19
:1075C00083030292D3F80CB001F00303012B22D005
:1075D000022B15D08346404602F05EFB10B1029BA1
:1075E000CAF808305946384602F038FBDAF8083055
:1075F000DAF8042003F580739B1AA5E7D8B2CEE72A
:10760000BDF80E30C3F3891303334FEA1B4B02EB73
:1076100093030293DFE7BDF80C30C3F383134FEA03
:107620001B4B1344F5E7A40544F0060098E700BFA0
:1076300008250020064B074810B500221A7003F0F9
:107640005AF8044610B9044803F078F9204610BDF2
:1076500008250020DC4103005C1A030030B50A4C09
:1076600071B10A4A0A49121BD20800239A4201D179
:10767000002030BD31F82350854202D00133F5E7B8
:10768000034654F83300F4E7D44003009C41030060
:10769000C0230020094B013903EBC000032909D89E
:1076A000DFE801F00A020406042070470079704701
:1076B000407970470020704702207047D440030093
:1076C00070470000034BD3E90130C31A58425841B8
:1076D000704700BF082500202DE9F04186B0FFF774
:1076E000F1FF0546002840F0ED80774CC4F81804FF
:1076F000BFF34F8FA3680293DBB2033304EB830025
:1077000002A9FFF7E5FE029B18B1D4F81824002A5D
:107710005AD0DAB2991C013304EB8202DBB204EBDB
:107720008303D268DB68049302F00303022B039205
:10773000029154D1BDF80E306448C3F38917502F1D
:107740003E4628BF502606F1080166F38F13C1F3A9
:107750000901ADF80E3002F0E6FF0546002800F002
:107760009C8003F00FF80023082203A9284603F0A9
:107770001BF80299CB43DBB20133C9B20331B6EB3C
:10778000830F4FEA830204EB810125D95FFA82F867
:107790000823A6EB0806284603F006F8F6B208F11F
:1077A00008034B4903F0FC033246284602F0FCFF75
:1077B000029B033703EB97070297D4F81834002B8A
:1077C00043D1D4F8106453E062689A4294D8A2601E
:1077D000284606B0BDE8F08108233246E5E7012BD4
:1077E0005BD1BDF80C303948C3F38311062928BF9B
:1077F000062161F38913023101F00F018900ADF810
:107800000C3002F090FF0546002846D002F0BAFF87
:107810000023082203A9284602F0C6FF0026BDF86F
:107820000C20C2F38312B300964203F10803C4D2C2
:1078300002994A1CC9B20331029204EB810104226D
:10784000284602F0B1FF0136E9E7284602F09EFF24
:10785000FFF738FF80F00100C5B2B9E7F3685B7944
:1078600023B1336829461B6830469847F3681E6881
:10787000002EF3D1284602F089FF0DF107008DF8A4
:10788000076000F0ADFFD4F818340BB9029BA36079
:107890009DF8070000F0C8FFDAE7D4F8104454B9A7
:1078A0000C4B0D480D49C01AC008000440F00200FE
:1078B00000F05EF8CCE7236820469B689847E368B1
:1078C0001C68ECE7002583E708250020DC41030065
:1078D00014250020D4400300FC400300451A030097
:1078E0002DE9F34704460E46924601A901221846A7
:1078F0009946FFF70BFE1C4F10B3019D4FF0000897
:10790000AA1CC84508EB020125D11848002102F045
:107910005EF980F31000000440EA1440E4006B1CA0
:1079200004F03804DBB2EDB244F0010407EB83034A
:10793000033544EA881444EA8624D86047F8254091
:107940003B781BB1FFF7C8FE0028FBD1FFF7B8FE5C
:1079500002B0BDE8F087C9B207EB81015AF82830C0
:10796000CB6008F10108CCE708250020242900207D
:1079700000231A46FFF7B4BF07B50123019201AAFD
:10798000FFF7AEFF03B05DF804FB07B5CDE90023B8
:1079900002236A46FFF7A4FF03B05DF804FB1FB59E
:1079A000CDE90123069B039301AA0323FFF798FF68
:1079B00005B05DF804FB1FB5CDE90023069B0293DB
:1079C000079B03936A460423FFF78AFF05B05DF81F
:1079D00004FB000030B51349D1F8104403460020E1
:1079E00022464AB9DC682071D1F8104454B9C1F874
:1079F0001034DB681A6030BDD268157985420AD030
:107A00001268EEE7E468DA6824681460D1F810249C
:107A1000D2681360EFE701300A28E1D14FF0FF3060
:107A2000E9E700BF0825002038B5084B0125D3F849
:107A300010441D7004B938BDE3685D7123682046A9
:107A40005B689847E3681C68F4E700BF08250020DE
:107A500030B5C38885B004460D4633B1144A009250
:107A60001449154A284602F07CF9217A05291DD0CF
:107A7000637A4BB1A088FFF70DFE104B104953F805
:107A80002020284602F06DF9227A0E4BA08853F888
:107A9000222003920021FFF7E1FD039A0A490346E1
:107AA000284605B0BDE8304002F05BB905B030BDF6
:107AB000881A0300701A0300681A0300F41A0300FE
:107AC000EB330300181B03008D1A030007B50346B0
:107AD0000846197A052911D05B7A2BB1094A0A495F
:107AE000019002F03EF901980849019002F039F93D
:107AF000019803B05DF804EB02F028B9002AF8D031
:107B0000F2E700BF881A0300EB330300851A030075
:107B10002DE9F04385B01F460C9D002395F80C908D
:107B20002B7306460C46904629463846FFF790FFD1
:107B3000B8F1060F09D8DFE808F00412181F28333F
:107B400040003146284602F00CF90022294638460A
:107B5000FFF7BCFF85F80C9005B0BDE8F083226804
:107B60003146284602F0FDF8EFE7D4E9002331461C
:107B7000284602F0F6F8E8E7A36800933146D4E916
:107B80000023284602F0EDF8DFE7E3680193A368DD
:107B900000933146D4E90023284602F0E2F8D4E706
:107BA00023690293E3680193A36800933146D4E903
:107BB0000023284602F0D5F8C7E7636903932369D9
:107BC0000293E3680193A36800933146D4E900234C
:107BD000284602F0C6F8B8E708292DE9F84F804694
:107BE0000E4617461C463DD8002593F80C901D7391
:107BF00019461046FFF72CFFDFF890A0DFF890B091
:107C0000AE4231D918F805205946204602F0A9F8AD
:107C10000135082DF4D11A491A4DDFF878A0204615
:107C200002F09FF84FF0000B5E4524D918F80B20A6
:107C30007E2A1ED8511C144BC9B2C95C11F0970F93
:107C400008BF2E225146204602F08BF80BF1010BA3
:107C5000BBF1080FE8D1012221463846FFF736FF75
:107C600084F80C90BDE8F88F5146204602F079F870
:107C7000CEE72E22E6E72946204602F072F8E5E735
:107C8000A11A03009F1A0300643F03009D1A03001A
:107C9000971A0300A31A0300074B1B5C1F2B8ABF14
:107CA000064A4FF0A04203F01F03D2F80405D84063
:107CB000C04300F001007047301B03000003005078
:107CC000074B1B5C1F2B86BF064903F01F034FF0B9
:107CD000A041012202FA03F3C1F80C35704700BF3E
:107CE000301B030000030050074B1B5C1F2B86BF9B
:107CF000064903F01F034FF0A041012202FA03F3EB
:107D0000C1F80835704700BF301B03000003005066
:107D100008B50020FFF7E8FF0120FFF7E5FF02208C
:107D2000FFF7E2FFBDE808400320FFF7DDBF08B51D
:107D30000020FFF7C5FF0120FFF7C2FF0220FFF779
:107D4000BFFFBDE808400320FFF7BABF0A4B185C2D
:107D50001F288ABF094B4FF0A04300F01F00D3F843
:107D600004250121814021EA02000A40C3F80805E8
:107D7000C3F80C25704700BF301B03000003005000
:107D8000074B1B5C1F2B8ABF064A4FF0A04203F033
:107D90001F03D2F81005D840C04300F0010070471F
:107DA0002C1B0300000300500B2809D00C2809D01D
:107DB000182809D019280CBF03204FF0FF30704756
:107DC000002070470120704702207047014B185C6B
:107DD000704700BF2C1B0300C20710B504460CD52A
:107DE0004FF0A0430322C3F83427C3F83827C3F861
:107DF0003C27C3F84027FFF78BFFA3070AD54FF0B6
:107E0000A0430C22C3F82C27C3F83027C3F86027FF
:107E1000C3F8642710BD4FF08053D3F83001A0F1B0
:107E200008035842584170474FF08053D3F830212F
:107E3000082A06D1D3F83431052B02D8024AD05C87
:107E400070470020704700BF3A1B0300024AD2F877
:107E50000034002BFBD0704700E0014010B5FFF765
:107E6000DAFF40B14FF080430022C3F80C21C3F881
:107E70001021C3F83825FFF7CEFF002846D04FF079
:107E80008052654BD2F80414C3F82015D2F80814B8
:107E9000C3F82415D2F80C14C3F82815D2F810141E
:107EA000C3F82C15D2F81414C3F83015D2F81814EE
:107EB000C3F83415D2F81C14C3F84015D2F82014B6
:107EC000C3F84415D2F82414C3F84815D2F828147E
:107ED000C3F84C15D2F82C14C3F85015D2F830144E
:107EE000C3F85415D2F83414C3F86015D2F8381416
:107EF000C3F86415D2F83C14C3F86815D2F84014DE
:107F0000C3F86C15D2F84424C3F87025FFF78CFF32
:107F100018B1424B424AC3F88C26FFF785FF18B1CF
:107F2000404BFB22C3F81825FFF77EFF70B14FF0DE
:107F300080414FF08053D1F8E42ED3F8583222F02C
:107F40000F0203F00F031343C1F8E43EFFF76CFF89
:107F500020B1354B4FF40072C3F84026FFF75BFFAA
:107F600048B14FF08043D3F80024D20744BF6FF0EC
:107F70000102C3F800242D4AD2F8883043F470037C
:107F8000C2F88830BFF34F8FBFF36F8F4FF080532D
:107F9000D3F83021082A0ED1D3F83431052B02D87A
:107FA000234AD35C3BB14FF01023D3F808224FF0A3
:107FB0008043C3F858254FF01023D3F80022002A3D
:107FC00003DBD3F80432002B22DA1A4901234FF0E5
:107FD0001020C1F804351224FFF738FFC0F8004222
:107FE000FFF734FFC0F80442FFF730FF0023C1F869
:107FF0000435FFF72BFFBFF34F8F0C490E4BCA68B8
:1080000002F4E0621343CB60BFF34F8F00BFFDE784
:108010000A4B0B4A1A6010BD00C0004000500040DF
:108020004881030000F000400090024000ED00E0B5
:10803000341B030000E001400400FA058C220020FC
:108040000090D003C30710B507D4F023054A4008B9
:10805000145C23401943115410BD0901C9B20F2308
:10806000F4E700BFD029002030B5094B1C78094B3C
:10807000196800239C4202DC0022104630BD11F832
:108080003350854201EBC302F7D00133F2E700BF62
:10809000C0290020F029002013B504460191FFF704
:1080A000E3FF38B143682BB10199204602B0BDE827
:1080B0001040184702B010BD034B04481968002255
:1080C000490800F055BA00BFC429002090220020C2
:1080D00010B5C0B2FFF7C8FF0446007802F070FF89
:1080E00063785A1E53425341834208D1044BD3E96B
:1080F0000023134303D1BDE81040FFF7DDBF10BDDF
:10810000C829002037B54308374AD35CC2074CBFA3
:108110001B0903F00F0304460D46042B25D8DFE8A6
:1081200003F003262F3C4000F9B10121FFF78AFF3D
:1081300000230DF107008DF8073000F051FB0120FE
:10814000A4F12003C4F12001284A20FA01F100FA29
:1081500003F30B43A040D2E9004120430B43C2E9A3
:1081600000039DF8070000F05FFB03B030BD00295D
:1081700018BF0221204603B0BDE83040FFF762BFC0
:1081800049B10321FFF75EFF0121204603B0BDE89E
:108190003040FFF781BF0121ECE70029E5D1042140
:1081A000E8E709B10321E5E7FFF74CFF2946204640
:1081B000FFF772FF0DF107008DF8075000F010FB7C
:1081C0000120A4F12003C4F12001084A20FA01F1A2
:1081D00000FA03F30B43A040D2E9004124EA000077
:1081E00021EA0303BBE700BFD0290020C8290020F3
:1081F0002DE9F041124E134F00243378A34208DCDE
:10820000114BD3E90023134318D0BDE8F041FFF729
:1082100053BF3D6805EBC40815F8340002F0D0FEEA
:1082200098F801305A1E53425341181A41424141B5
:1082300015F83400FFF766FF0134DEE7BDE8F08192
:10824000C0290020F0290020C8290020092AF7B5FC
:1082500005460C4616463ED902F0DAFDE8B11F4B42
:108260001F481D601F4B204F1C70204B00212022F7
:108270001E6009F029FA1E4B00200021C3E900010D
:10828000013CE4B20326FF2C0DD11A4A1A48002102
:1082900003B0BDE8F04000F059B902F073FD0028CA
:1082A000DDD003B0F0BD9DF8063015F834008DF830
:1082B000046005EBC40223F007038DF8063001A922
:1082C00093788DF805303A4602F0ACFD013CE4B2FB
:1082D0000028D8D0E5E70720E3E700BFF029002019
:1082E000D0290020C0290020D1800200C42900200C
:1082F000C8290020F18102004C1B030070B5084D15
:10830000084E00242B789C4201D3002070BD3368B6
:10831000012113F8340002F005FE0134F2E700BF3A
:10832000C0290020F02900201FB50021039001AAD8
:1083300044F20100CDE9011100F004F805B05DF848
:1083400004FB000038B572B6FFF76EFBFFF7C4F907
:108350000028FBD1104B114C114D1249E41AE408CE
:10836000240444F00100FFF703FBD5F8F030DB07ED
:1083700000D500BE0C4944F00200FFF7F9FABFF344
:108380004F8FEA68094B02F4E0621343EB60BFF3DE
:108390004F8F00BFFDE700BFD4400300FC40030047
:1083A00000ED00E0501B03005C1B03000400FA0515
:1083B00010B5D0E90243D1E90202A04272EB0303F7
:1083C0002CBF0120002010BD08B50A4800F06FFB4B
:1083D000094AD2E90031C018084BD3E9002341F122
:1083E0000001904271EB030303D210F1807041F160
:1083F000000108BDB0220020F8290020702A0020CA
:1084000037B505460C460A4801A901F014FB60B1D6
:108410000570446001A9064801F037FB18B1054812
:1084200000F04AFB002003B030BD0420FBE700BF92
:108430005C2A0020B022002073B5294B1E78044628
:108440001EB90026304602B070BD0028F9D0FFF7F3
:10845000BBFFD4E902239042994139D300230DF1A7
:1084600007008DF8073000F0BBF923692BB94FF0F6
:10847000FF324FF0FF33C4E902239DF8070000F0FC
:10848000D3F9D4E90530984700250DF107008DF8A0
:10849000075000F0A5F92369C3B1D4E90212B2F183
:1084A000FF3F08BFB1F1FF3F05D05B1842F100026A
:1084B000C4E9023235469DF8070000F0B5F9002DF9
:1084C000BFD00848214602F05CFABBE71D46F2E740
:1084D000B3F1FF3F08BFB2F1FF3FB2D0F1E700BFF9
:1084E000002A0020781B030013B5114B11491868AE
:1084F000019008231048582201F068FA044698B900
:108500000E4A0F4801A900F0B3F9044660B90C48BF
:10851000012100F0ADFA01230A4A0948194600F08A
:1085200009FA094B01221A70204602B010BD00BFA3
:10853000741B0300042A00205C2A00202986020004
:10854000B0220020FFFF7F00002A002030B56AB172
:1085500003684FF0FF344FF0FF355A614A1E514215
:10856000C3E9024551411961002030BD0720FCE7F5
:10857000F7B5044600250DF1070017460E468DF8A5
:10858000075000F02DF9D4E90223B3F1FF3F08BFF3
:10859000B2F1FF3F07D1FFF717FF301841F100019B
:1085A000C4E9020101259DF8070000F03DF955B12D
:1085B0002369A76103B126612146002003B0BDE80D
:1085C000F040FFF71DBF284603B0F0BD37B50546A4
:1085D00000240DF107008DF8074000F001F9D5E9FE
:1085E0000223B3F1FF3F08BFB2F1FF3F1FBF4FF0BF
:1085F000FF324FF0FF33C5E9022301249DF8070045
:1086000000F012F934B12946012003B0BDE8304032
:10861000FFF7F6BE204603B030BD0000014800F071
:1086200046BA00BFB02200202DE9F743064600F00D
:1086300028FA40B1624AD2E9003113F1807341F166
:108640000001C2E900310021304600F02AFA38B1B9
:108650005C4C236823B12068FFF7EEFE0023236003
:108660000121304600F01DFA20B1FFF7ADFE564B58
:10867000C3E900015548534C01A901F016FA4FF027
:10868000FF384FF0FF39A0B9DFF844814D4D404627
:1086900002F08DF9002800F08580D0E90223B3F1C3
:1086A000FF3F08BFB2F1FF3F32D1404602F079F9F7
:1086B000EDE70378012B20D0022B08D1444D28464A
:1086C00002F06FF9002877D0C0E90289F7E75BB9BB
:1086D0004168D1E90223B3F1FF3F08BFB2F1FF3F88
:1086E00002D03B4802F04DF901A9384801F008FAE0
:1086F00001A9364801F0D9F9C5E7416823689942D4
:1087000002D100232360EFE7314802F053F9EBE791
:10871000296891B12968D1E9020182428B412FD2A7
:108720002B68D3E90223B3F1FF3F08BFB2F1FF3F4B
:1087300003D02968404602F024F9404602F031F99E
:10874000D0E902490746FFF73FFE201A69EB01090D
:10875000012879F1000318DBB0F5350F13D3FFF7CB
:108760005DFF1C4A02441C484FF49603002100F0B0
:1087700005F990B92B6813B9304600F0D3F82F6093
:1087800003B0BDE8F0832246EDE71348002100F076
:108790007DF93846FFF750FE01E00D28F9D000239F
:1087A0002B6074E7074B1B68002BE9D1304603B000
:1087B000BDE8F04300F0BAB8084B01221A7093E705
:1087C000F8290020782A0020702A00205C2A002046
:1087D000781B0300FFFFB400B0220020002A002015
:1087E00070B5EFF3108672B60C4A946801239CB9F9
:1087F00093600B4B0B4DD3F8801029401160C3F8E8
:108800008050D3F8841051604FF0FF32C3F88420B9
:10881000047006B962B670BD0370FAE77C2A0020C6
:1088200000E100E0FC06FFBD10B5084B9A685AB1A4
:1088300050B9EFF3108172B6054A1C6814605C6889
:108840005460986001B962B610BD00BF7C2A002058
:1088500000E100E0435882B03BB10023435043584D
:108860000193019B012002B070471846FBE700000E
:1088700038B5244C437944F82320234C234A121B57
:10888000234C04EBC303D2081B79120433B142F02A
:1088900002002049FFF76CF8082038BD03680D88F6
:1088A000C3F8085590F904308978002B4FEA41113C
:1088B000ADBF03F1604303F00F03174D03F56143B0
:1088C000B9BFC9B2E954C9B283F8001390F90430B2
:1088D000002B08DB01215D0903F01F0301FA03F3FC
:1088E0000E4941F82530437904EBC301012544F8D2
:1088F00033000D7142F003000949FFF739F80020F9
:10890000CBE700BF902A0020D44003000C410300B5
:10891000882A0020841B030014ED00E000E100E041
:10892000A61B0300036801221A6070470368012236
:108930005A607047F7B504684FF480358D40C4F82D
:1089400008530468C4F8485301F15004A4000668B1
:10895000A4B20027375134590194019C046801F5F1
:10896000A87122F07F4244F821200268C2F84453E3
:1089700013B10368C3F8045303B0F0BD2DE9F34706
:1089800099464FF48038036808FA01F8C3F8488321
:108990000368C3F8088322F07F4502680E46D2F8C8
:1089A000041502EB860206F15007D2F84035C2F8F2
:1089B0004015BF000268BFB24FF0000A42F807A09E
:1089C0005B1AD259009223F07F43012B009A044690
:1089D0000BD1264B4FF4806043F001039847236886
:1089E00043F807A0DB590193019B2368D3F8047572
:1089F000C3F84483EB1B23F07F43012B06F5A876D5
:108A0000236819D1013543F82650184B4FF4806084
:108A100043F0010398472368D3F804359F4209D1F6
:108A20002368C3F8448323680020C3F8048302B09A
:108A3000BDE8F0870D20FAE743F826502068D0F80B
:108A400004156A1A013AC9F1FF1322F07F4203F5B7
:108A50007F439342EED3002AE2D1013540F82650FD
:108A60002368D3F804359942D9E700BFC01B03003F
:108A700002680223C2F8443311B10268C2F8043319
:108A8000704700684FF48271FFF7E4BE4FF4803303
:108A900003FA01F10368C3F848130368C3F8081325
:108AA000704750318900006889B2FFF7D3BE036870
:108AB000D3F804057047000090F90430002B09DB5F
:108AC0005A09012103F01F0301FA03F3403202495E
:108AD00041F82230704700BF00E100E0024B034A3A
:108AE0001B681068184700BF902A0020882A0020C1
:108AF00070B5064D0646002455F8043B0BB13046D0
:108B000098470134042CF7D170BD00BFA02A002083
:108B10004388033300EB830399420BD382884FF6DB
:108B2000FF739A4208D0038833B18068431C5842CF
:108B3000584170470220704701207047033080B2CF
:108B400040F2FE33984230B51FD8134B1A783AB929
:108B50001C895D892C440444A4B2B4F5806F0AD901
:108B60001A7DAAB99A8BDC8B2244024492B2B2F5E8
:108B7000806F0DD801220A801446142202FB0433B0
:108B80005A8910445881002030BD48F20860FBE744
:108B900048F20660F8E700BFD42A00200B4A0C49CF
:108BA0005388142000FB0311CB6833B904204968B3
:108BB00010700122074801F065BB074905231370B7
:108BC00002238B80012209680023F3E7B82A0020E2
:108BD000D42A0020C02300209C2B002007B50023AE
:108BE00005490093054A09680548082301F0B4FACD
:108BF00003B05DF804FB00BF9C2B0020D41B0300D6
:108C0000C023002007B5002301460093034A04480F
:108C1000082301F0A1FA03B05DF804FBCC1B0300AC
:108C2000C023002013B500230C4600930146084AD8
:108C30000848042301F090FA38B9074B142101FBCE
:108C4000043101230B7402B010BD48F20D60FAE745
:108C5000C81B0300C0230020D42A002037B50A48CF
:108C60000A4B42689C8819685388032503330570B2
:108C70009BB2002000909B0001EB8401044801F0AE
:108C80006BFA03B030BD00BFB82A00209C2B002037
:108C9000C023002010B50146044800F0CCFE1C2281
:108CA0000446002108F010FD204610BD882B00204E
:108CB00068B10268084B9A4209D14068074B984254
:108CC00007D00133984214BF0320012070470320CE
:108CD00070470020704700BFDEC0ADDEFE011EF110
:108CE0002DE9F0410D460223154F2B80164600F565
:108CF000805100F108044FF001088C420ED2236825
:108D000001330BD02046FFF703FF48B10EB186F8C0
:108D10000080022809D14FF480632B80BDE8F081E8
:108D2000A3683A68934200D93B602B88628803337A
:108D300013442B806388033304EB8304DDE700BF17
:108D4000CC2A002038B5144B14220D4602FB00300B
:108D50002B68446804F58051A3B15C88033403EBAD
:108D600084048C4215D22368013312D02046FFF7C9
:108D7000CFFE012808D002280BD00028F1D12C60AA
:108D8000012038BD0834ECE76388033304EB830427
:108D9000E7E70020F5E700BFD42A002073B542685A
:108DA00004460D466AB3234BD9688A4229D31B690E
:108DB0009A4226D812F0030323D11F49008909895A
:108DC00088421ED12068916888421AD11B484168A8
:108DD0008A4203D901F580518A420DD381698A42C2
:108DE0000CD901F580518A4208D201222A80B3FAB7
:108DF00083F0400902B070BD1A46F7E748F20963F4
:108E0000F5E700262E800196288801A9FFF79AFF32
:108E100030B92B8801339BB2012B2B80F3D9E9E7C2
:108E2000019B226899689142EED16360024B1B89D5
:108E30002381DFE7C0230020B82A0020D42A0020A5
:108E40002DE9F8431C461F4B1B7806460F46154676
:108E5000002B31D0002A32D0002C30D0DFF86C80CB
:108E60004FF01409A388012B02D948F2096021E0D0
:108E700009FB03F318F803302BB9A0882146FFF74C
:108E800061FF20B92060A3880133A380EAE723684B
:108E90001EB1998832889142EFD11FB119883A8862
:108EA0009142EAD19B682B6023686B60064B1B895B
:108EB0002B810020BDE8F88348F20160FAE748F210
:108EC0000460F7E7B02A0020B82A0020D42A002046
:108ED00008B5074B5888191DFFF734FF18B1BDE8D6
:108EE0000840FFF7BBBEBDE80840FFF757BE00BF14
:108EF000B82A00202DE9F0479F4FDFF8A08288B004
:108F000006463B6823B99D48414600F0CEFD3860D7
:108F10003D6829784B1E052B07D8DFE813F02000A9
:108F200074007400070107015E0148F20E64142208
:108F3000002103A808F0C8FB41F61D539C4208BF5E
:108F400000243B6804941A78023A042A00F2FC8157
:108F5000DFE812F0DD01E9010B0213021A022EB163
:108F6000874B00225A604FF40644E0E72B79032B2D
:108F70001CD8DFE803F014022A35824A1378022B4A
:108F80001AD0137D022B4FF0010317D114214B434C
:108F9000D1180020D0544868FFF734FE03E00123C5
:108FA0002B71FFF71BFE002800F0BA80744B0022E3
:108FB0005A6048F20D64BAE70023E7E7704A13707D
:108FC0000023536041F61D54B1E76F496F480023F9
:108FD00002222B718A800968012201F053F9E2E72D
:108FE0006B4B684C5B88684A14214B43E1180026A0
:108FF0002E714D6810681560958848600D810221BA
:10900000E6549180C8E7B5F814A0AA7DDFF8749102
:109010001423AEB1022A06D903FB0A93EA88198900
:1090200003320A441A81142303FB0A99EB88B9F826
:109030000A20C3F57F43FD331344A9F80A3092E7B1
:1090400003FB0A9318895C6804EB8004062A6AD83B
:10905000DFE802F0284F37451E5B040041F61D543F
:10906000AB7D022B07D9142202FB0A92EB881189EF
:1090700003330B441381142303FB0A99EB88B9F8DB
:109080000A20C3F57F43FD331344A9F80A304EE7A5
:109090004048414900234360AB690360FFF77EFE0F
:1090A00000285BD00223AB75002300930423EA1849
:1090B0002146364801F050F8002831D048F20D64BE
:1090C000CEE72B69002B14BF03230123AB750023CC
:1090D000009305F10C02042304F10801E9E70123E0
:1090E000AB750022EB8800922A699B0004F10C0109
:1090F000DFE703290CBF05230623AB75002300938C
:10910000042305F10802E118D3E70623AB75224BCF
:109110001988204B5868FFF785FD044600289FD129
:1091200008B0BDE8F08748F20E6499E7002E7FF49E
:109130001AAF2B79012B33D0022B3FF443AF002B16
:109140007FF4F3AE02232B71CDE904660DF10A0121
:10915000EB68039303A8FFF721FE10B948F20964F6
:10916000E5E60498BDF80A108388EB8003882B811C
:10917000FFF758FD044626E0D02A0020882B002067
:10918000B02A0020D42A00209C2B0020C0230020DD
:10919000B82A0020942A0020A82B0020C82A0020EA
:1091A0007B4B03AA3146A81DFFF74AFE784B0446C5
:1091B00068B999880498FFF735FD044648F20963B9
:1091C0009C423FF4FFAE002C7FF4B1AEA8E708222A
:1091D0003146184608F078FAF0E7002E7FF4C3AE67
:1091E0006C4B1A7BB2B11E731A78013A062A3FF60D
:1091F0009CAE01A151F822F0A3920200C992020094
:10920000E7920200ED9202002B8F0200F39202001F
:10921000059302001A78072AE6D801A151F822F036
:1092200041920200E9910200E99102006792020076
:109230007B9202009F9202009F92020063920200C2
:109240001A89554901321A8100225A801A730A7804
:10925000B2FA82F252099A720A7DB2FA82F2520985
:10926000DA72012207E04D4958688A884088033243
:1092700002448A8002221A70B6E75C88464A47494F
:10928000142505FB04220868546850608888108102
:1092900002200C608880002111740622EBE707226F
:1092A000E9E79A7A32B9DA7A8AB900221A705A80D2
:1092B0005A6087E6384900229A72CA68002AF2D1B9
:1092C000097C0029EFD05A80FFF702FE52E7002206
:1092D000DA72314A116A0029E7D192F82420002A73
:1092E000E3D00122EFE7FFF7B9FC43E7FFF756FCB5
:1092F00040E75A88284B142101FB02335868FFF7D6
:1093000081FC37E700225A60FFF768FC32E7012250
:109310008DF80C201A89ADF818209A88ADF81A201B
:10932000DB68059310E002228DF80C201A89ADF855
:1093300018209A88ADF81A20DA6805929B7D9A1F4A
:10934000534253418DF81C3003A8FFF7D1FB002690
:10935000414613483E6000F0D3FB1248012100F063
:1093600089FC00287FF4CDADDAE603228DF80C20CD
:10937000DA88ADF818201A89D0E704228DF80C207D
:10938000DB88ADF81830DFE705238DF80C30DBE71C
:10939000AC2B0020B82A0020D42A00209C2B0020CF
:1093A000882B0020982B00204068FFF7A3BD000009
:1093B00008B50548012100F045FC18B9BDE8084092
:1093C000FFF798BD08BD00BF982B00202DE9F341A1
:1093D0009846364B1B7806460D46002B5AD000297E
:1093E0005BD009884FF6FF73994259D06B88002BE8
:1093F00056D06B689B0756D14AB92F890DF10201EF
:109400003846FFF79BFB30B102B0BDE8F08113880E
:109410005788ADF8023001A8FFF73CFC044660B95C
:10942000BDF80220224B142101FB02335889033876
:10943000C01B588148F20760E6E780F800800023EF
:109440008375BDF8023083826B680361012119487E
:1094500000F004FCE0602B8823816B88A380B8F1C6
:10946000030F04BF0423A375E78004BF3368A3611F
:1094700000251148658101A900F007FB36B1756030
:10948000E36833600D4BB5721B893381FFF790FFA2
:109490000020B9E748F20160B6E748F20460B3E79C
:1094A00048F20360B0E748F20260ADE7B02A00205E
:1094B000D42A0020CC2A0020882B0020B82A0020A3
:1094C00008B5034607480268042A08D00168064A1E
:1094D00042F82130012100F0C1FB002008BD48F214
:1094E0000B60FBE7A42B0020A02A00202DE9F04F01
:1094F000DFF8208289B01422002103A808F0E4F8E4
:1095000098F8003003F0FF0200923BB103A8FFF788
:10951000EFFA0027384609B0BDE8F08F08F10400E3
:1095200000F0B4FB0028F4D1009BDFF8ECA1D3F8E5
:10953000F83F5C1C08BF4FF010234FF0805208BF6B
:109540005B6911695269581C08BF02FB01F3CAF834
:1095500010306949A3F5405300225046CAF80C3038
:1095600000F0C8FD07460028D4D11C236349644895
:10957000DFF8A8B18C2200F029FA0323B9463D4652
:1095800001933C46DAF80C604E443046FFF790FBFE
:10959000012867D0032817D000283DD159494FF042
:1095A000140C0CFB04FC01EB0C0201F80C005660DF
:1095B0000CF110020CF1080C0A4430466144FFF72C
:1095C0008FFB45F002054AE03268531C02D04E4B37
:1095D0009A4239D1321D06F580511068013033D1DD
:1095E00004329142F9D1DBF800203AB9022201237A
:1095F000CBF80060ABF8042000930BE01422624328
:10960000404B022099189854404A4E6054800134CF
:109610000881A4B245F0010509F58059B9F5405F0C
:10962000B0D1019B012B98BF0025EDB2022D03D0D4
:10963000062D36D0002D3ED1002388F8003048F2A8
:109640000A67C8F8043065E7019B2E495A1E93B299
:109650001422624388180193466003208854013421
:10966000A4B2D9E7009B6BB1264B14226243991830
:1096700002209854DBF800204A60244A0881548074
:109680000134A4B200222249CBF800603046FFF733
:1096900027FBBBF80420022A0CBF04220822154332
:1096A000BAE7012388F8003003A80023C8F8043083
:1096B000FFF71EFA2EE702A8FFF7ECFAC8B1012364
:1096C000013D03700A2D09D8DFE805F006080608F9
:1096D000070807080F110F000023037102A90848AB
:1096E00000F0D3F9FFF764FE14E70323F5E7022344
:1096F000F3E748F207670DE7C81D0300FC2A0020C6
:10970000882B0020D42A0020DEC0ADDEB82A00203D
:10971000A02B0020B02A0020C02300209C2B00207A
:1097200073B50D460446C8B1C1B10DF10601FFF78E
:1097300035FBB0B1BDF806300B486668142202FB59
:10974000030001210C3000F089FA2E6063680C33AD
:109750006B600123A372002002B070BD48F2046068
:10976000FAE748F20960F7E7D42A002013B5044667
:10977000A8B10DF10601FFF711FB98B1BDF8062065
:109780000B4B142101FB0233DA6872B1A27A62B189
:10979000DA680020013ADA60A07202B010BD48F227
:1097A0000460FAE748F20960F7E748F20560F4E779
:1097B000D42A002002230022FFF708BE18B1032399
:1097C0000022FFF703BE48F20460704713B5114B47
:1097D0001B780446ABB14FF6FF73984214D001A832
:1097E000FFF758FA98B10523037001230371C48071
:1097F00001A9094800F049F9FFF7DAFD002002B09D
:1098000010BD48F20160FAE748F20360F7E748F25A
:109810000760F4E7B02A0020882B002007B50F4B23
:109820001B78A3B101A8FFF735FA98B1062303709E
:1098300001A90B4800F029F90A4B1A780AB1012254
:109840001A73FFF7B5FD002003B05DF804FB48F282
:109850000160F9E748F20760F6E700BFB02A002090
:10986000882B0020B82A002007B5ADF80600ADF817
:1098700004100DF1060001A9FFF7E2FA03B05DF84C
:1098800004FB07B51346ADF806000A4600200DF1AB
:109890000601FFF7D5FA03B05DF804FB07B51346E0
:1098A000ADF806000A460DF106000021FFF7C8FAE0
:1098B00003B05DF804FB20B119B103680B60002010
:1098C000704748F2046070472DE9F0473D4B1B7824
:1098D0000446002B6FD0002870D0DFF8EC901222E5
:1098E000002107F0F1FE032323804FF0000A4F46CA
:1098F00014264FF00108B9F80A30B9F80810D9F861
:1099000004001944FFF7D4F9032808BF23886288AC
:1099100004BF03F1FF33238006FB0A7389B2DB68BF
:1099200013446380B9F80A2023891344238163898F
:109930000B446381C1F58061A38989B28B4238BF32
:10994000A181D9F8041001F1080501F58051A9425F
:1099500029D92B68013326D02846FFF7D9F80128EA
:109960000AD0022815D00028F1D1A3880133A380A2
:109970000AE04FF0010ABEE7E3880133E380E389A0
:109980006A8803331344E3816B88033305EB830553
:10999000DDE7E38884F810804D1BE189013301EB9A
:1099A000A501E380E18109F11409BAF1000FE0D0CB
:1099B0000020BDE8F08748F20160FAE748F2046051
:1099C000F7E700BFB02A0020D42A002010B561B10B
:1099D000B2FBF3F403FB1424A4B244B9C0E90014AD
:1099E00084608281C381204610BD0E20FCE70920DF
:1099F000FAE782B050E8022FC188B2EB324F4FF045
:109A0000000317BF92B241EA014142EA014104E07A
:109A10004268B2EB324F08BF012340E80212002A2D
:109A2000E8D18DF807309DF80730002B0CBF1120CE
:109A3000002002B0704737B550E8013F9DB2C4899D
:109A400025448489A54228BF2D1B0489A54202BF55
:109A5000BFF32F8F002207E0C5EA030540E8015459
:109A6000002CE9D14FF001028DF803200193019AF7
:109A70000A609DF8031001F0FF0321B1006810FA9D
:109A800082F003B030BD1846FBE70A884B889A4243
:109A900009D150E8012FC2EA024240E80123002B1D
:109AA000F7D1012070470020704737B550E8023FDA
:109AB0001FFAA3F5C488A54202BFBFF32F8F00226F
:109AC0000DE0C48925448489A54228BF2D1BC3EA23
:109AD000054540E80254002CE8D14FF001028DF812
:109AE00003200193019A0A609DF8031001F0FF031F
:109AF00021B1006800EB124003B030BD1846FBE70F
:109B00000A884B889A4209D150E8022FC2EA2242C1
:109B100040E80223002BF7D1012070470020704756
:109B200001F01F024B090121914000EB830000F07E
:109B300065B84B0910B501F01F040121A14000EBED
:109B4000830000F04FF8E04000F0010010BD01F08C
:109B50001F0301229A404B0900EB8300D14300F020
:109B600065B84B0901F01F0150F82300C84000F010
:109B7000010070472DE9F0474F1E7F0980460E46D1
:109B80000137002558F8254008EB8509E44394FA8D
:109B9000A4F4B4FA84F44FEA451A202C06D1013516
:109BA000AF42EFD834462046BDE8F0875444A64281
:109BB000F5D921464046FFF7BCFF0028F3D0D9F87D
:109BC0000040E44394FAA4F4B4FA84F4E5E710B551
:109BD000034653E8000F0A4643E8002494F0000FC0
:109BE000F7D110BD10B5034653E8000F40EA01025B
:109BF00043E8002494F0000FF6D110BD10B50346E1
:109C000053E8002F42EA010043E8000494F0000FFB
:109C1000F6D110BD10B5034653E8000F00EA01026B
:109C200043E8002494F0000FF6D110BD10B50346B0
:109C300053E8002F02EA010043E8000494F0000F0B
:109C4000F6D110BD10B5034653E8000F00EB01023A
:109C500043E8002494F0000FF6D110BD10B5034680
:109C600053E8002F02EB010043E8000494F0000FDA
:109C7000F6D110BD10B5034653E8002FA2EB01004A
:109C800043E8000494F0000FF6D110BD0121FFF766
:109C9000A9BF0121FFF7B2BF0021FFF7BBBF10B57D
:109CA00090B1D0E9012301689B1ADBB20A60013B45
:109CB000DBB2FF2B026802D10020107110BD1168C9
:109CC0004C1C14600B70F2E70E20F7E737B5044622
:109CD00000250DF107008DF80750FEF781FD226881
:109CE000616813688B4210D9591E116013F8013C4A
:109CF000228AE56802FB03552268A36811685B1A93
:109D00001179DBB2994238BF13719DF80700FEF755
:109D10008BFD284603B030BD37B5054600230DF155
:109D200007000C468DF80730FEF75AFD2A681368C5
:109D3000591C1160E968641A298AB4FBF1F41C709B
:109D40009DF80700FEF770FD03B030BD10B58268C6
:109D500004462AB143690168006998470023A3605B
:109D600010BD0EB403B5039921B104AB01AA019350
:109D700000F076F802B05DF804EB03B070470A29F2
:109D800038B504460D4602D10D21FFF7F8FFA36850
:109D90002268591CA160D554D4E901329A4204D3F7
:109DA0002046BDE83840FFF7D1BF38BD2DE9F84F58
:109DB0009846DDE90A43154682460F460A464FF0AB
:109DC0000109AA420FD2C14538BFC14613F0010BA9
:109DD00001D16CB900240126B8F1010F1BD908F19B
:109DE000FF386E43F8E709F10109B2FBF5F2E8E745
:109DF0009B070ED5B8F1000F0CBF30262026A145D9
:109E0000E9D2013C31465046FFF7B9FF002CF6D1AC
:109E1000E0E72026F3E7B7FBF6F39D42E1D9DFF850
:109E20003C80B7FBF6F3504618F8031006FB137797
:109E3000FFF7A5FF3346AB42B6FBF5F6F1D2BBF117
:109E4000000F02D00CB1A14501D3BDE8F88F20214D
:109E50005046013CFFF793FFF4E700BFDC1B030013
:109E60002DE9F74F054617468846002900F03E8148
:109E700018F8011B49B92B7B002B00F037812846CD
:109E800003B0BDE8F04FFFF761BF252940F0B78070
:109E9000002698F800302D2B424608F1010823D007
:109EA000302B24D02B2B25D000242A2B02F10101AA
:109EB00023D13B681A1D3A601B680A461C4413787C
:109EC0002E2B26D101324FF0000A104610F8011B4C
:109ED000A1F1300CBCF1090F1DD80A2303FB0A13B2
:109EE000A3F1300A0246F0E746F00106D1E746F05A
:109EF0000206CEE746F00406CBE711F8013CA3F1D9
:109F000030000928DBD80A2202FB0434303C0A4620
:109F1000CBE74FF0000A12F8011B01F0FB006828A4
:109F20009046F8D0782909D86F290CD8632962D0D7
:109F300022D8252963D0582900F0888098F800306D
:109F4000002B95D197E770390829F7D801A353F86A
:109F500021F000BFC7A002003D9F02003D9F02000C
:109F60005DA002003D9F02003BA002003D9F020059
:109F70003D9F02004DA00200642901D06929DDD176
:109F80003A68111D3960D2F8009089EAE972A2EBB3
:109F9000E9724FF0010B092A35DCD34538BFD346AF
:109FA0002CB1B9F1000F01DB720700D5013CB307FA
:109FB00002D5BAF1000F03D0F00701D44CBB002446
:109FC000B9F1000F2DDAC9F100092D212846FFF75C
:109FD000D6FE06F00302022A04D1BAF1000F01D125
:109FE0001CBB0024CDE9004653460A2249462846B8
:109FF000FFF7DCFEA2E73B681A1D3A601978284695
:10A00000FFF7BDFE9AE70A230BF1010BB2FBF3F257
:10A01000C1E7A345D4D220212846013CFFF7AFFE7B
:10A02000CCE77107D5D52B21D0E7A345DAD2302173
:10A030002846013CFFF7A3FED2E73968CDE9004688
:10A040000A1D3A6053460A220968D0E739680A1D9A
:10A050003A60CDE9004653461022F5E73B681A1DE9
:10A060003A6016F00106D3F8009024D1B9F1000F40
:10A0700003D0484607F030FB0646B4421DD809F12C
:10A08000FF3919F8011F00293FF458AF2846FFF7A0
:10A0900076FEF6E728460136FFF771FE19F806103E
:10A0A0000029F7D1A642BFF449AF20212846013C40
:10A0B000FFF765FEF6E70026F0E720212846013C81
:10A0C000FFF75DFED9E73B681A1D3A60302128464C
:10A0D0001C68FFF754FE78212846FFF750FE002247
:10A0E0000823CDE900322146102280E703B0BDE805
:10A0F000F08F00BF13B50B46114680B9104B1148C5
:10A10000114AC01A0E23C0080093104B00041049D6
:10A1100040F00100FDF743FC0E2002B010BD4BB92A
:10A12000074B08480B4AC01AC0080E2300930004CE
:10A13000064BECE703601B6802B0BDE8104018470F
:10A14000D440030024410300EC1B0300A81D0300BE
:10A15000F11B0300201C03002DE9F34188B93D4B9E
:10A160003D483E4AC01AC0080E243D4B00940004EE
:10A170003C4940F00100FDF712FC204602B0BDE86A
:10A18000F0814AB9334B3448374AC01AC0080E240C
:10A19000334B00940004EBE7D0F800E0BEF1000F71
:10A1A00009D12C4B2C48314AC01AC00808242C4B2A
:10A1B00000940004DCE74BB9264B27482C4AC01A10
:10A1C000C0080924264B00940004D1E74568D5F85F
:10A1D0000480B3FBF8F508FB15354DB11D4B1E4847
:10A1E000244AC01AC00809241D4B00940004BFE78C
:10A1F0008D0709D0174B18481F4AC01AC0081024F1
:10A20000174B00940004B3E712F0030F09D0114B71
:10A2100011481A4AC01AC0081024114B00940004B7
:10A22000A6E7C568A9420BD34D1EEC180569AC42E0
:10A2300006D8DEF80C40A44602B0BDE8F041604705
:10A24000044B05480E4AC01AC0081024044B009461
:10A2500000048DE7D440030024410300EC1B0300FD
:10A26000951D0300F11B03006E1C03001A1C030064
:10A270002D1C0300741C03009E1C0300B61C03006D
:10A28000D91C0300F7B580B92A4B2B482B4AC01ABA
:10A29000C0080E242A4B009400042A4940F0010013
:10A2A000FDF77DFB204603B0F0BDD0F800C0BCF147
:10A2B000000F09D11F4B2048234AC01AC0080824A8
:10A2C0001F4B00940004E8E74AB91A4B1A481F4A8A
:10A2D000C01AC00809241A4B00940004DDE7456841
:10A2E000D5F800E00EF1FF350D4209D0114B1248B0
:10A2F000174AC01AC0081024114B00940004CCE780
:10A30000C568A9420CD34D1E0EFB02540569AC4230
:10A3100006D8DCF81040A44603B0BDE8F040604722
:10A32000044B05480B4AC01AC0081024044B009483
:10A330000004B2E7D440030024410300EC1B0300F7
:10A34000821D0300F11B03001A1C03002D1C0300D7
:10A35000001D0300261D030029DF704728DF70471A
:10A3600070B50668B36886B004460D4673B1142212
:10A370000021684607F0A8F9A368059323790195A1
:10A3800033B1012B0ED0B3686846984706B070BD54
:10A3900001238DF8003023690293E3680393636916
:10A3A0000493F0E702238DF80030E3681B03029367
:10A3B000F5E708467047002070470000024B187A06
:10A3C000003818BF01207047502C0020034B187A2A
:10A3D0000122B0FA80F05A7440097047502C0020D6
:10A3E00008B510461A4607F061F9002008BD0000C4
:10A3F00008B514220021044807F066F90348FFF766
:10A40000F8FA002008BD00BF502C0020402C00208E
:10A4100010B5094C094B43602046FFF737FC40B9A3
:10A4200006F08EFF064920741C2306488C22FFF795
:10A43000CDFA002010BD00BF502C0020BC1D030031
:10A44000B42B0020402C002038B5234D234C2B7A10
:10A450003BB923492348FFF728FB206008B968600F
:10A4600038BD022324682B72237973B1012B24D0C9
:10A4700020460321FFF774FF00232B726B601849FD
:10A480001848BDE83840FFF73BBBD4E90523D21A92
:10A49000B2F5805FD4E9031028BF4FF480529208D0
:10A4A000012A38BF012219441844FFF755FF50B163
:10A4B0001128DDD101232B72D2E7D4E9030318441C
:10A4C000FFF74CFFF3E72B7C002BC9D1BDE83840E8
:10A4D000022000F009B800BF502C0020682C00209A
:10A4E000642C0020402C002038B5234C237A002B0C
:10A4F00041D0022B09D1032830D0204B00221B6809
:10A50000E2601A793AB1012A22D0637C7BBBBDE8B4
:10A510003840FFF799BFD3E905128D1AB5F5805F72
:10A5200094BF521902F580529A619142EDD10228EE
:10A530004FF0000308BF19462372104B18BF0D21BE
:10A540001868FFF70DFF0E490E48FFF7D9FADCE750
:10A550001A6901321A615B699A42E7E7E3680133DD
:10A56000082B01D8E360D0E70023E360DFE7BDE814
:10A57000384006F0D5BE38BD502C0020682C002095
:10A58000642C0020402C0020831E012B01D8FFF7F3
:10A59000ABBF704700F0FD03012B08D1044B002234
:10A5A0005A74421E504250411874FFF74DBF704715
:10A5B000502C002010B5064C201DFFF767FB28B972
:10A5C000637C1BB9BDE81040FFF73EBF10BD00BF64
:10A5D000502C00202DE9F34180460D460F4801A97B
:10A5E00016461F46FFF727FA0446A8B11C22002191
:10A5F00007F06AF82D0B0123237101A90748C4F85D
:10A600000080A760E5606661FFF73FFAFFF7D2FFC1
:10A61000002002B0BDE8F0810420FAE7402C0020C1
:10A620002DE9F74381468846104801A917461E4682
:10A63000FFF701FA0446B0B11C22002107F044F8EC
:10A6400000250A9BA36001A9C4E903780748257186
:10A65000C4F800906661FFF718FAFFF7ABFF2846D1
:10A6600003B0BDE8F0830420FAE700BF402C0020CF
:10A670002DE9F84FB0F806A04579D2F800B09DF862
:10A6800028900AFB05F5043D88460BEB0301A9421F
:10A6900003F1040488BFA5EB030BB4FBFAF60746ED
:10A6A0000AFB1644C2F800B04EB9AAEB04055D459A
:10A6B00028BF5D46BBF1000F04D1BDE8F88F3F68AD
:10A6C000013EF1E7043408EB06003C442A46B9F1A8
:10A6D000000F0DD02146ABEB050B06F0E7FFDA4586
:10A6E0002E443F6855464FF0000428BF5D46E1E721
:10A6F00001462046EFE7FFF7D2BAF8B546790146A2
:10A70000721E0546002393422D6803D30024A642FF
:10A7100002D8F8BD0133F6E70F682846FFF7FCFAC8
:10A7200001343946F3E72DE9F843CD1C068A074684
:10A73000FFF7CCFA043E35440446B5FBF6F5F0B11C
:10A740004FF48073EDB28380C680013D076081467F
:10A750004FF00008A84512D23846FFF7B7FA064670
:10A7600048B163790133637108F10108C9F8000049
:10A7700007608146EEE72046FFF7BFFF34462046DC
:10A78000BDE8F88301210430FFF768BA10B5012154
:10A7900004460430FFF76EFAC0B220B92046BDE887
:10A7A0001040FFF7AABF10BD1FB503920022009210
:10A7B00003AAFFF75DFF05B05DF804FB1FB5039228
:10A7C0000122009203AAFFF753FF05B05DF804FBD6
:10A7D00033DF704741DF70470D4A08B5002313701F
:10A7E0000C4A1360BFF35F8F0B490C4800F0B4F8BC
:10A7F0000B4A0C480121FDF7A9FE024630B9BDE81D
:10A80000084009484FF48041FDF7B2BE08BD00BFC3
:10A81000752C0020782C0020F81D03006C2C0020E3
:10A8200029A90200F41D0300B822002007B5002367
:10A830000DF107008DF80730FDF7D2FFF1EE103A69
:10A8400023F09F03E1EE103ABFF35F8F0A4B4022E3
:10A85000C3F884219DF80700FDF7E6FF06F070FDC0
:10A8600020B103B05DF804EBFFF7B4BF20BF40BFD9
:10A8700020BF03B05DF804FB00E100E070B5244D9B
:10A88000044601212846FFF7A2F9BFF35F8F38B9CC
:10A89000042C0AD01F4B1A781AB1BFF35F8F2860BF
:10A8A00070BD1D4A147001221A701C4C1A4E636848
:10A8B000BBB9FDF7B9F8FCF70FFF0028FBD1164B29
:10A8C0001B78023B012B15D8BFF34F8F1449154B52
:10A8D000CA6802F4E0621343CB60BFF34F8F00BF3E
:10A8E000FDE71B68307898470028D6D0204600F056
:10A8F0003CF8DCE706F024FD08B1FFF769FF4FF0F4
:10A9000080430122C3F80025BFF34F8F20BFFDE72E
:10A91000782C0020752C0020742C00206C2C00203A
:10A9200000ED00E00400FA05034B1B7813B104208E
:10A93000FFF7A4BF704700BF752C0020826800237A
:10A94000936082681361826853618268D360826811
:10A95000536082681360704701600B6843604A6807
:10A96000934204BF002343607047436843B10268C9
:10A9700091680B4443605268934204BF00234360D4
:10A98000704770B5446806460D46206818B1B36834
:10A990002946984718B923682B60256070BD246844
:10A9A000F3E74368186808B102681A6070474368A3
:10A9B000186870474368186800B97047884203D127
:10A9C00002681A600120704703460068F4E700003F
:10A9D00010B50D49A1F59472914201D800200FE005
:10A9E0008C1AE30F03EBE4035B1002EBC30452F891
:10A9F0003330834205D802D204F10802ECE76068E4
:10AA000010BD2146E8E700BF0423030008B5FFF7A7
:10AA1000DFFF024B002808BF184608BDC72103000E
:10AA200038B5074C051E04F1080318BF1C462368FF
:10AA30002BB11A6822605B6828469847F7E738BD53
:10AA4000842C002020B9054B01225A70FFF7E8BF83
:10AA5000012802D1014A9070F8E770477C2C002051
:10AA600020B9034B01225A70FFF7DABF704700BFCD
:10AA70007C2C002038B50E4C2378B3B90D486360A8
:10AA8000A3602361E36000F0E7F8054606F058FC98
:10AA900008B900F0EDF801232370074BD3F8003418
:10AAA0000BB10123A370284638BD8525F5E700BF0B
:10AAB0007C2C002045AA02000000014037B50D4C57
:10AAC00000230DF107008DF80730FDF789FEE368DC
:10AAD000013BE360E36833B9074BD3F8005415B981
:10AAE00000F0D8F8A5709DF80700FDF79DFE03B0B3
:10AAF00030BD00BF7C2C002000000140012813B5B0
:10AB00000CD0032820D038B9134B0122C3F8802081
:10AB1000BFF34F8FBFF36F8F02B010BD0F4C0023F8
:10AB20000DF107008DF80730FDF75AFE23780BB9B9
:10AB3000FFF7A0FFE3689DF807000133E3600123FE
:10AB4000A370FDF771FEE7E700F092F802B0BDE8F0
:10AB50001040FFF7B3BF00BF00E100E07C2C0020F5
:10AB60001FB503788DF800304368019383688DF832
:10AB70000830C368054A0393054B684653F82130F3
:10AB800052F82110984705B05DF804FB902C002086
:10AB9000982C00201FB503788DF80030436801938E
:10ABA00083688DF80830C368054A0393054B6846EF
:10ABB00053F8213052F82110984705B05DF804FB96
:10ABC000902C0020982C0020F0B5194B90F800C074
:10ABD000DFF86CE043F82C20164B16460A6943F860
:10ABE0002C204B7F0EF80C300C4607460FCC89B05A
:10ABF0006D460FC594E80F0085E80F003B78CDF84F
:10AC000010C01EF803304BB1002E0B4A694608BF36
:10AC10003246381D00F01EFE09B0F0BD002E074A76
:10AC2000694608BF324607F10C0000F0B9FBF3E7B4
:10AC3000982C0020902C002061AB020095AB020004
:10AC4000A02C002000F18040002382B00360036844
:10AC50000193019B02B07047044A137923B9012183
:10AC6000106091801846704785207047A42C002002
:10AC7000074B1A68D20704D4C02283F800230122AC
:10AC80001A604FF080430122C3F81825704700BFB7
:10AC900000E100E04FF0804208B50223C2F808331B
:10ACA0004FF48270FFF7CEFF0123D360D2F818343F
:10ACB000DB03FBD408BD000010B54FF08041D1F894
:10ACC000003163B14FF48070FFF7BCFF01220D4BE0
:10ACD000C1F80823587910B95A711B6898474FF08A
:10ACE0008042D2F8043163B14FF48270FFF7AAFFBB
:10ACF0000223C2F80833034BBDE810401B68012053
:10AD0000184710BDA42C002000F1804000F5C04081
:10AD1000002382B0036003680193019B02B0704777
:10AD200003681F2B83BF03F01F03036001484FF02C
:10AD3000A04070470003005007B5019001A8FFF73D
:10AD4000EFFF019B00EB8300D0F8003723F4403382
:10AD5000C0F80037D0F8003743EA0141C0F80017C7
:10AD600003B05DF804FB0000054B4FF0FF320728ED
:10AD700043F8202084BFC01880F85820704700BFD7
:10AD8000AC2C002038B51E4C94F86A30ABBB4FF6A3
:10AD9000FF71FF205A09012A0CBF0A464FF0FF320B
:10ADA00003F01F05EA40D20748BFE21803F1010390
:10ADB00048BF82F83000302BECD10021C8B20131FD
:10ADC000FFF7D2FF0C29F9D1062200210D4806F029
:10ADD0007BFC0D4BC02283F8062340221A604FF4FF
:10ADE000BE70FFF791FF094B4FF00042C3F80423F8
:10ADF000012384F86A30002038BD0820FCE700BF3A
:10AE0000AC2C0020102D002000E100E0006000408C
:10AE1000034B93F86A00003818BF0120704700BF49
:10AE2000AC2C0020F7B53D4F3B18044693F9303069
:10AE3000002B71DA8B78C3F34003002B0BBF08257E
:10AE400000250C200820854202D1042003B0F0BD6B
:10AE500057F82560013647D138196EB247F82520DA
:10AE600080F8306013B97B1983F858408B785A0703
:10AE70001AD4D8073AD501A80194FFF751FF019BD6
:10AE800000EB8300D0F8003723F00203C0F800374E
:10AE90002348E20804F0070C012303FA0CF310F82E
:10AEA00002C043EA0C03835488780B7810F0020048
:10AEB00028D0AD0005F1804505F5C0452402D5F840
:10AEC000102522F44F3222F44072C5F810251B04DD
:10AED000D5F8102504F47C5403F440331C43144388
:10AEE000C5F810450020B1E70135ACE701A84A7864
:10AEF0000194FFF715FF019B03F5E073920040F802
:10AF00002320C5E7083E47FA86F797F8604044EAF1
:10AF1000831387F8603099E7082097E7AC2C00206E
:10AF2000102D002073B5244D2E18044696F93020BC
:10AF3000072A1DDD083A45FA82F595F860309B092D
:10AF4000032B10D1019001A8FFF7EAFE019BD0F876
:10AF50001015D94001F001010231204602B0BDE8D0
:10AF60007040FFF7E9BE012B0CBF02210321F4E77B
:10AF7000D3B2072B1DD8930003F1804303F5C043E0
:10AF8000D3F8100540F00100C3F8100502F14000AD
:10AF900040B2800080B2FFF7B7FE51B196F9303071
:10AFA00055F823302BB1012303FA02F2034BC3F807
:10AFB000042302B070BD00BFAC2C00200060004034
:10AFC00007B5019001A8FFF7ABFE019BD0F8100573
:10AFD000D84000F0010003B05DF804FB2DE9FF4705
:10AFE0000024CDE90244584D4FF48072012102F152
:10AFF000804303F5C04390B21B68012B06D1D5F8FE
:10B0000004330B4202D0FFF77FFE0C430432B2F54B
:10B01000907F4FEA4101EAD14B4BD3F87C31012BB1
:10B0200011D14FF4BE70FFF76FFE4FF0A04344F014
:10B030000044D3F820250292C3F82025D3F8202815
:10B040000392C3F82028E3B2D3B1404F0025012674
:10B05000344210D0AB0003F1804303F5C043D3F872
:10B060001005D3F8101557F8253023B1C1F301416D
:10B07000C0F3052098470135082D4FEA4606E7D171
:10B08000002C59DA314D324C324E4FF00008012776
:10B0900016F9013B5A1C3CD0C3F3C201103169447C
:10B0A0005FFA83F911F8081C03F03F0203F007036D
:10B0B00007FA03F319422CD001A80192FFF730FEE2
:10B0C000019B03F5E07350F82330C3F3014ABAF152
:10B0D000020F0CBF032102211046FFF72DFE01A82D
:10B0E0000192FFF71DFE019B07FA03F3C0F820351C
:10B0F000AB1893F9303055F8233053B14FEA99111A
:10B10000032904D0BAF1020F19D1012901D1104647
:10B11000984708F10108B8F1040FB9D14FF0A043E6
:10B12000D3F820250292C3F82025D4F820350393C4
:10B13000C4F820351343A7D104B0BDE8F087BAF1B5
:10B14000030FE6D10229E1E700600040AC2C0020AB
:10B15000000300500C2D0020014B1B68184700BF56
:10B16000182D00200E4B984237B50C4602D0002017
:10B1700003B030BD00230DF107008DF80730FDF757
:10B180002FFB084B1D7915B901221C601A719DF81F
:10B190000700FDF749FB002DE9D01120E8E700BFCB
:10B1A00000200040182D0020034B984201BF034BA4
:10B1B00000221A601A71704700200040182D0020EC
:10B1C0000023435082B043580193019B02B0704763
:10B1D0000A4610B54FF48E71FFF7F2FF136A9168BB
:10B1E000C95C136A01331362C0F81C1510BD10B599
:10B1F0008B690A464FF4847123B9FFF7E1FFD0F859
:10B20000183510BDFFF7DCFF536AD168D0F8180578
:10B21000C854536A01335362F3E700001FB501239A
:10B220008DF80030044BCDE90110D3E900126846D7
:10B23000904705B05DF804FB202D002030B54E4D41
:10B24000D5F804339A0585B051D5D5F82431002BB3
:10B250004DD04FF492712846FFF7B2FF4FF40173BF
:10B26000C5F80833454B93F829200AB901226A60D2
:10B27000414902228DF80020D1F88024C1F88024B1
:10B2800003929A690292DA6801920022C3E90622C7
:10B290006846D3E9001290473748D0F81C315BB1BB
:10B2A000364A5169136A99424ED992F82830002BD8
:10B2B0004AD11146FFF78CFF2F48D0F84431002BBC
:10B2C00057D04FF4A271FFF77BFF2C4B93F8292046
:10B2D0000AB1012202609A69002A4AD0586AD968E4
:10B2E00000229A6105B0BDE83040FFF797BFD5F85E
:10B2F00004335B07D0D5D5F80831002BCCD01F4CD8
:10B300001D482146FFF773FF636AA2699A42C3D1C1
:10B31000E36953B1A3612369E168E3600023606AD4
:10B32000E3616362FFF77AFFB6E794F829300BB95F
:10B3300001236B60104B4FF40172C3F80823002304
:10B34000606AE168A361EDE70B484FF48E71FFF787
:10B3500037FF5369002BAFD05169029100239168E8
:10B360008DF80030019153616846D2E90013984787
:10B37000A2E705B030BD00BF00200040202D002016
:10B380001F2886BF00F01F00044B4FF0A04300F5BC
:10B39000E070022243F82020704700BF00030050F5
:10B3A0002DE9F8436D4E90F804802C2303FB0863CD
:10B3B000054693F82A300C469146002B40F0CA808F
:10B3C00067490068FFF7CEFE0746002840F0C480BA
:10B3D00023685A1C19D01F2B4FF001028ABF614904
:10B3E0004FF0A04103F01F0302FA03F3C1F8083540
:10B3F00023681F2B86BF03F01F035A4A4FF0A04259
:10B4000003F5E073032142F823106368581C0BD046
:10B410001F2B86BF03F01F03524A4FF0A04203F5D3
:10B42000E073002142F823102B68A269C3F8242599
:10B43000217D637D2A680B43C2F86C35D4E9001284
:10B440002B68C3F81425C3F80C15237D012B32D1CA
:10B45000A368591C0BD01F2B86BF03F01F03414A62
:10B460004FF0A04203F5E073002142F82310E36897
:10B470005A1C19D01F2B4FF001028ABF39494FF0D7
:10B48000A04103F01F0302FA03F3C1F80835E36893
:10B490001F2B86BF03F01F03324A4FF0A04203F573
:10B4A000E073032142F82310D4E902122B68C3F899
:10B4B0000825C3F810152C2303FB08F3F218C2F873
:10B4C00004902269F250B9F1000F30D02868247F2F
:10B4D000254A4FF48E71FFF773FE4FF4A27128686E
:10B4E000FFF76EFE2B68C3F804232A68110B42F3A2
:10B4F0000732002AAEBF02F160421C4A01F00F0180
:10B500004FEA4413DBB2AABF02F56142535482F8FA
:10B5100000332A68130B42F30732002A07DB03F0DB
:10B520001F0101238B405209114941F822302B6839
:10B530000422C3F800252C2303FB08630022C3E97F
:10B54000062283F829205A61012283F82A203846EE
:10B55000BDE8F8830827FAE71127F8E7202D002037
:10B560003DB20200000300508000020014ED00E034
:10B5700000E100E02DE9F041036805792A4C002242
:10B58000C3F800252C2303FB054301465B68B3B1D8
:10B590000368264AC3F8082303681A0B43F30733EA
:10B5A000002B0CDB02F01F005B09012282402033DC
:10B5B0001F4840F82320BFF34F8FBFF36F8F0B68F6
:10B5C0004FF0FF32D3F80C05D3F81485D3F8086593
:10B5D000D3F81075C3F81425C3F80C250B689042F6
:10B5E000C3F80825C3F8102501D0FFF7C9FEB8F14C
:10B5F000FF3F02D04046FFF7C3FE7A1C02D0384618
:10B60000FFF7BEFE731C02D03046FFF7B9FE086894
:10B61000FFF7CAFD2C2303FB0544002384F82A30DE
:10B620006360BDE8F08100BF202D0020840202008D
:10B6300000E100E00279044B2C2101FB0233586940
:10B64000003818BF01207047202D00202DE9F84F49
:10B65000064690F8048089469246FFF7EBFF0446C1
:10B6600000283DD1204F2C2508FB057B4FF48E711F
:10B67000CBF814A0CBF80890CBF820008BF828006A
:10B680003068FFF79DFD336801229A6030685946A3
:10B69000FFF79EFDDBF804305D461BBB3068DBF82E
:10B6A00014402B6A9C4211D83368D3F81C21002A1D
:10B6B000FBD00122DA6000202C2303FB0877002353
:10B6C0007B61BDE8F88F95F828303BB9D0F81C3184
:10B6D000002BF8D05946FFF77BFDE2E70F20EBE7A0
:10B6E0001120EEE72046ECE7202D002000234350F8
:10B6F00082B043580193019B02B070471FB50123EC
:10B700008DF80030044BCDE90110D3E900126846F2
:10B71000904705B05DF804FB4C2D00207FB5434AEF
:10B72000D2F82461002E60D010464FF49271FFF7DA
:10B73000DDFF02238DF80030D2F88034C2F8803467
:10B740000393D2F83C350293394BDA680192002218
:10B75000C3E906226846D3E9001290473348D0F87F
:10B76000443173B14FF4A271FFF7C0FF304B9A69B7
:10B770003AB10022C3E90622D968D0F83C05FFF7A8
:10B78000BDFF2A48D0F82031ABB14FF49071FFF7DC
:10B79000ADFF0123C360264B5A6962B1D0F84C1546
:10B7A0000291002299688DF8002001915A61684643
:10B7B000D3E9001290471D48D0F858319BB14FF49F
:10B7C000AC71FFF793FF1A4B5A6962B1D0F84C1570
:10B7D0000291002299688DF8002001915A61684613
:10B7E000D3E90012904704B070BDD2F81031002B9D
:10B7F000B4D04FF488711046FFF778FF0C4BD2F8A5
:10B800003C0599698842A9D1DC69D96864B1D2F84C
:10B81000005225F02005C2F800521A699C61DA60D6
:10B82000DE61FFF76BFF99E79C61FAE700200040BB
:10B830004C2D00201F2886BF00F01F00044B4FF046
:10B84000A04300F5E070022243F82020704700BFBB
:10B85000000300502DE9F843744E90F8048024232F
:10B8600003FB0863054693F820300C469146002BF5
:10B8700040F0D7806E490068FFF774FC0746002847
:10B8800040F0D18023685A1C19D01F2B4FF00102C1
:10B890008ABF68494FF0A04103F01F0302FA03F387
:10B8A000C1F8083523681F2B86BF03F01F03614AC8
:10B8B0004FF0A04203F5E073032142F823106368C0
:10B8C000581C0BD01F2B86BF03F01F03594A4FF0A3
:10B8D000A04203F5E073002142F823102B68A2690F
:10B8E000C3F82425217D637D2A680B43C2F86C359B
:10B8F000D4E900212B68C3F80C25C3F81415237D67
:10B90000012B32D1A368591C0BD01F2B86BF03F02B
:10B910001F03484A4FF0A04203F5E073002142F8AC
:10B920002310E3685A1C19D01F2B4FF001028ABF65
:10B9300040494FF0A04103F01F0302FA03F3C1F89E
:10B940000835E3681F2B86BF03F01F03394A4FF009
:10B95000A04203F5E073032142F82310D4E9021258
:10B960002B68C3F80825C3F81015242303FB08F33C
:10B97000F218C2F804902269F250B9F1000F3FD0DA
:10B980002868227F4FF48871FFF7B0FE28684FF4D3
:10B990009071FFF7ABFE28684FF49271FFF7A6FE97
:10B9A00028684FF4A271FFF7A1FE4FF4AC7128682C
:10B9B000FFF79CFE2B682049C3F804132B68190B72
:10B9C00043F30733002BAEBF03F160431B4B01F081
:10B9D0000F014FEA4212D2B2AABF03F561435A5493
:10B9E00083F800232B681A0B43F30733002B07DB84
:10B9F00002F01F0101228A405B09114941F823200E
:10BA00002B680822C3F80025242303FB08660023C3
:10BA1000C6E906337361012386F820303846BDE855
:10BA2000F8830827FAE71127F8E700BF4C2D00201C
:10BA30001DB70200000300501003420014ED00E0A7
:10BA400000E100E02DE9F8433E4D06790468242327
:10BA500003FB065302465B68ABB13B4BC4F80833AB
:10BA60000368190B43F30733002B0CDB01F01F00B5
:10BA70005B09012181402033344840F82310BFF393
:10BA80004F8FBFF36F8FD4F8003223F02003C4F838
:10BA90000032242303FB06539B6933B14FF4A27198
:10BAA0002046FFF723FE012363604FF4AC7120466C
:10BAB000FFF71CFE0123E360242303FB0653D4F8A5
:10BAC00058110029FBD0996919B1D4F84411002903
:10BAD000F5D00023C4F8003513684FF0FF31D3F8D8
:10BAE0000C05D3F81495D3F80875D3F81085C3F86E
:10BAF0000C15C3F8141513688842C3F80815C3F869
:10BB0000101501D0FFF796FEB9F1FF3F02D048466D
:10BB1000FFF790FEB8F1FF3F02D04046FFF78AFEE4
:10BB20007B1C02D03846FFF785FE2046FFF73CFB22
:10BB3000242303FB0655002385F820306B60BDE805
:10BB4000F88300BF4C2D00201003420000E100E00C
:10BB50000279044B242101FB02335869003818BFD5
:10BB6000012070474C2D002001F06043B3F1005FCD
:10BB70002DE9F0470546884692463ED190F804905C
:10BB8000FFF7E6FF0446002839D11F4F242606FBA5
:10BB900009764FF49071C6F814A0C6F8088028689A
:10BBA000FFF7A4FD4FF4AC712868FFF79FFD2B68E9
:10BBB0007269B168C3F84415C3F848252B6801229F
:10BBC0009A607368EBB92B68D3F82021D3F8580139
:10BBD0001AB90028F8D00F2008E00028FBD1012274
:10BBE000DA602A68D2F85831002BFBD0242303FBFB
:10BBF000097700237B61BDE8F0871020FBE7112067
:10BC0000F9E72046F7E700BF4C2D00201F288ABF28
:10BC1000094B4FF0A04300F01F0003EB8000D0F869
:10BC2000003723F44033C0F80037D0F8003743EA38
:10BC30000141C0F800177047000300500220FCF7D4
:10BC400085B800002DE9F04780460D46FCF7ACF8BA
:10BC50000328044610D8012D10D0022D30D05DB934
:10BC60001A48FCF7B3FC1A4B04EB440213449D78CA
:10BC7000184B1B5DAB4219D0BDE8F087144E00EBAA
:10BC80004003F218F55C5378470053B1DFF84C904D
:10BC90000E484A464FF48041FCF76AFC08B989F81F
:10BCA000008027443E440B4BB2781A55002DE3D058
:10BCB000094B1B68002BDFD02846BDE8F04718472A
:10BCC00000EB4004024804446578EFE7F8220020C6
:10BCD000722D00208D2D0020882D0020702D002039
:10BCE00000780221FFF7AEBF08B5094B1B7853B1AE
:10BCF0000020FBF7F9FF0120FBF7F6FFBDE8084045
:10BD00000320FBF7F1BFBDE80840FCF701B800BF16
:10BD1000712D0020F8B57A4C237805461BB100231D
:10BD20002370FFF7E1FF172D00F28780DFE805F0B1
:10BD30000C1717425364757F878C878C9499999957
:10BD40009999C3C8D0D8E3E3FFF7CEFF6D48FCF75D
:10BD50003DFC6D4B002204461A702046F8BD0020C1
:10BD6000FBF79AFFF0B10020FBF7BEFF022D0CBFDE
:10BD70004FF4E1644FF47A64634B1D7000254FF477
:10BD800000464FF47A7029464FF4FA620023E4FB30
:10BD9000060105F0ABFC2A460146BDE8F8405948CB
:10BDA000FCF7E6BBFBF78CFF022D0CBFC8244FF459
:10BDB000C874E1E70020FBF76FFF40B10020FBF7FC
:10BDC00093FF4FF44874504B03221A70D6E7FBF7E9
:10BDD00077FFC824F7E70020FBF75EFF38B10020AB
:10BDE000FBF782FF4FF47A64474B0422EDE7FBF741
:10BDF00067FF4FF4C874F7E70020FBF74DFF48B129
:10BE00000020FBF771FF404B05221A7040F6CD4130
:10BE10000022C2E7FBF754FFF5E70020FBF796FF8F
:10BE2000394B06221A70002240F26661B5E7002005
:10BE3000FBF746FF344B07221A7000248DE70120E0
:10BE40002070FBF783FFEEE701202070FBF77EFFF9
:10BE500000224FF40051A0E7FBF769FF2A4B0C22A8
:10BE6000EAE72A482A4EFCF7B1FBD5F11105044652
:10BE70001CD0D8B9012D13D0C820454321464FF41A
:10BE800000474FF47A704FF4FA620023C5FB0701B4
:10BE900005F02CFC224601461C48FCF769FB0446D1
:10BEA0000220FBF70DFF0123337056E70220FBF75A
:10BEB0001BFF0023F8E7FFF717FF134B1222BBE726
:10BEC000FFF712FF0020FBF7FBFE0F4B1322B3E737
:10BED000FFF70AFF0120FBF7F3FE0B4B1422ABE741
:10BEE000FFF702FF0020FBF7EBFE0120FBF7E8FE67
:10BEF000054B1522A0E7FBF71AFF034B1D709CE7CB
:10BF0000842D0020182300208C2D0020D822002012
:10BF1000712D0020044B1B68DB0703D5034B1878F9
:10BF2000FFF7F8BE704700BF802D00208C2D002049
:10BF3000032801D8FBF724BF00207047044B1B687F
:10BF400013F0010301D0FFF7E5BE1846704700BFAC
:10BF5000802D002038B51C4B18601C4B10F00204DB
:10BF6000054619601AD01A4B1A480E221A700F2271
:10BF7000DA7010229A7111225A72042140F233327F
:10BF8000FCF764F9044648B9FCF7B8F9044628B947
:10BF90000146114A1148FCF7D9FA0446EB0711D5BE
:10BFA0000120FBF719FF6CB921460D4A0D48FCF73B
:10BFB000CDFA044630B9BDE838400B4A0B480121A0
:10BFC000FCF7C4BA204638BD802D0020882D002003
:10BFD000722D002028230300E1BC02004C23030043
:10BFE00015BF0200502303003DBC0200482303009C
:10BFF000032811D8012A0AD101290FD100F10E021C
:10C00000D2B20D4B00EB40001A54002070470129BA
:10C01000F7D0022904D049B1072070470022F8E781
:10C02000054B00EB400018444270EEE7024B00EB7A
:10C03000400018448270E8E7722D0020032808B5FC
:10C0400006D8FBF7C3FE0321FFF7E0FD002008BD83
:10C050000620FCE708B5012202210020FFF7C8FFF7
:10C0600008B1072810D1072202210120FFF7C0FFE5
:10C0700008B1072808D100210A220846FFF7B8FFB7
:10C0800010B1072808BF002008BD000010B50388C4
:10C09000102B02D0112B1ED010BD1A4C2168B1B943
:10C0A00001220846FFF7A4FF08B1072824D1072280
:10C0B00002210120FFF79CFF08B107281CD10422B0
:10C0C00002210020FFF794FF08B1072814D123684C
:10C0D00001332360E0E70B4A1368013B1360002B38
:10C0E000DAD1FFF7B7FF0028D6D0074B1B68002B2B
:10C0F000D2D0BDE810401847034B1B68002BE6D098
:10C100009847E4E7982D0020942D002008B50020E2
:10C11000FFF794FF08B1062806D10120FFF78EFF34
:10C1200010B1062808BF002008BD00000D4B10B557
:10C1300018600C4629B10120FFF7FAFE40B1022336
:10C140002370094B1B6853B9BDE81040FFF782BF4D
:10C15000FFF7EEFE08B10B23F2E72070F1E70020B5
:10C1600010BD00BF942D0020982D002076DF704771
:10C170007ADF70477CDF70478FDF7047FCF7D4B8F9
:10C1800008B50020FFF7DAFE08B1FCF7CDF8FFF79D
:10C19000BDFF08B1FCF7C8F805F092F818B1BDE88A
:10C1A0000840FCF7C1B808BD13B503883B2B044613
:10C1B00008D005D8102B0AD0212B1BD002B010BDFF
:10C1C000562BFBD1A0881321FFF7D0FF0BE00720EF
:10C1D000FFF7B4FE08B1FCF7A7F80D4BA1880D4896
:10C1E000198002F035FB0028E8D002B0BDE810400D
:10C1F000FCF79AB8002380888DF8043001A98DF8E7
:10C200000530FFF7B9FF0028D8D0FCF78DF8D5E747
:10C210003C230020E431002010B5044603F0A4FEC6
:10C22000204603F0C5FE2046BDE8104003F058BC90
:10C2300010B5204B204A9B1ADB088CB01B04032846
:10C2400036D8DFE800F002272F3343F003042046FE
:10C250001A49FBF78DFB2C22002101A805F034FAC6
:10C2600044F250624FF496710123CDE9051214484F
:10C270008DF8083001A98DF8043000F0C6FE0021C9
:10C28000104801F067F9104902462046FBF774FB9D
:10C290000CB010BD0D4943F003000CB0BDE81040D8
:10C2A000FBF766BB0A4943F00100F6E70949FAE7E4
:10C2B0000949F8E7FC400300D4400300542303007D
:10C2C0009C2D0020DDC2020082230300992303007D
:10C2D000BC230300F52303002224030013B513211C
:10C2E0000190FFF743FF019A034660B10748084CED
:10C2F0000849241AE408240444F0020002B0BDE80E
:10C300001040FBF742BB02B010BD00BFD440030099
:10C31000FC40030049240300022807B50ED1094B55
:10C3200009480A49C01AC008000440F003000190FF
:10C33000FBF71EFB06490198FBF71AFB012003B02F
:10C340005DF804FBD4400300FC4003008A24030092
:10C35000B7240300032807D14FF08043A922C3F874
:10C3600020250020FEF78ABA7047000008B5037840
:10C370004BB9054B3B211888FFF7F8FE18B1BDE813
:10C380000840FBF7D1BF08BD3C230020072808B5B3
:10C3900013D00A280DD0042819D10D4B1321188869
:10C3A000FFF7E4FE30F0080311D0BDE80840FBF7CA
:10C3B000BBBFBDE80840FFF7E3BE054B1A884FF648
:10C3C000FF739A4203D1034800F001FEEAE708BD7B
:10C3D0003C2300209C2D002008B548B103280BD138
:10C3E0000220FFF7ABFD38B1BDE80840FBF79CBF6A
:10C3F000BDE80840FFF7C4BE08BDFBF795BF0000CD
:10C4000030B54FF48041AFB00020FBF713F908B10D
:10C41000FBF78AFFFBF74CF804F00AFE08B1FBF7C4
:10C4200083FFFCF761F808B1FBF77EFFFEF7D4F954
:10C4300008B1FBF779FF7F490320FFF78BFD08B1B7
:10C44000FBF772FF03A90020FFF770FE08B1FBF7AE
:10C450006BFF9DF80C4004F0F5FE08B1FBF764FF9C
:10C46000002303A90120039304F0B8FF08B1FBF7F0
:10C470005BFF03A805F064F808B1FBF755FF02F075
:10C48000EFFF08B1FBF750FF0522002103A805F0DC
:10C490001BF931238DF80C3007238DF80D30102354
:10C4A0008DF80E309DF80F3023F0030343F00303A3
:10C4B0008DF80F309DF8103023F0030343F0030391
:10C4C00003A88DF8103003F06BF808B1FBF72CFFD0
:10C4D000594803F04DF808B1FBF726FF11235748E0
:10C4E0008DF8083005F0F8F8544982B202A8FFF739
:10C4F00041FE08B1FBF718FF0822002103A805F050
:10C50000E3F85023ADF80C30A023ADF80E30002333
:10C51000ADF8103003A84FF4C873ADF81230FFF730
:10C5200027FE08B1FBF700FF4548002102F07EF826
:10C5300008B1FBF7F9FEAC22002103A805F0C4F80E
:10C5400002238DF80C3040F20163ADF80E30012566
:10C550003C4B08932C22002121A8ADF81C5005F07B
:10C56000B3F844F250634FF49672CDE92523364870
:10C57000364B8DF8885003A92C9300F069FB08B165
:10C58000FBF7D2FE3048012100F05FFB002303934C
:10C590002F48304B029302A902F048F908B1FBF78B
:10C5A000C3FE2D4B039303A804F0C6FC08B1FBF7B0
:10C5B000BBFE1C22002103A805F086F800234FF4DF
:10C5C000A032CDE90332ADF81A304FF4F0228DF8E5
:10C5D0001C30224B059208930322214B8DF8182022
:10C5E00003A8099300F01EFE08B1FBF79DFE1D4B4A
:10C5F0001D481E49C01AC008000440F00300019005
:10C60000FBF7B6F9022C0FD119490198FBF7B0F9E5
:10C6100002F0F2FF08B1FBF787FEFBF75DF8002898
:10C62000FBD1FEF703F9F8E70321074800F087FB89
:10C63000F0E700BF8DC3020019C20200E624030028
:10C64000D0310020382300209C2D0020D9C30200C7
:10C65000E43100207DC1020031C202006DC302003E
:10C66000FBC30200D4400300FC400300F824030095
:10C670001C25030013DF704738B50023134CD3F893
:10C68000F85F134BE41AE4086A1C4FEA044404D12F
:10C690004FF010235D696B1C11D02A460D4944F000
:10C6A0000300FBF769F92846FFF7E4FF054620B1D0
:10C6B000094944F00100FBF75BF9284638BD0749FA
:10C6C00044F00100FBF754F90425F6E7FC400300B1
:10C6D000D4400300292503005425030087250300C7
:10C6E00038B50B4B0B4C0C4A0C49E41AE4082404F3
:10C6F00044F00300FBF740F90748FFF7BBFF05468E
:10C7000020B1074944F00100FBF732F9284638BD53
:10C71000D4400300FC400300007002009F2503008A
:10C72000542503006DDF704779DF70477DDF704768
:10C7300064DF70472DE9F04F85B000250E9CBDF8F1
:10C740003CB0B4F800A00191074690461E46A946A9
:10C750003A884A450DDC45B12388013BA3EB0A0327
:10C760009BB2FF2B3AD806F80A30002005B0BDE88E
:10C77000F08F7A6852F82900039000220DF10B0126
:10C7800003A8FFF7D5FF0028F0D19DF80B20424504
:10C7900021D12288002D14BF0020022002EB0801C5
:10C7A000014459451ADC3DB9013292B2019B228005
:10C7B000B35422880132228022880DF10B013244C9
:10C7C00003A8FFF7B5FF0028D0D121889DF80B20E2
:10C7D0000A442280012509F10109B9E70C20C5E7C7
:10C7E0002DE9F341089FBDF824801546CDE9007876
:10C7F000022204461E46FFF79DFF50B93346102221
:10C8000029462046CDE9087802B0BDE8F041FFF79F
:10C8100091BF02B0BDE8F0812DE9F04F00231788E9
:10C82000138090F82D3085B006460D46144653B35C
:10C83000082F01D80C2027E102A8FFF773FF00287A
:10C8400040F0228123880822EA54238801339BB2D6
:10C850001B222380EA542088013080B220800622E7
:10C860000DF10901284404F021FF23889DF80820D8
:10C8700006339BB212F0FE0218BF01222380EA5455
:10C88000238801332380B378FBB123880433BB4270
:10C89000D0D802A8FFF748FF002840F0F580238891
:10C8A0000322EA54238801339BB219222380EA54DD
:10C8B0002388BDF8082001339BB2E9182380EA548D
:10C8C000120A4A70238802332380F2789AB12388AF
:10C8D000D91CB942AED80221E954238801339BB256
:10C8E00001212380E95423880B449BB22380EA541E
:10C8F00023880B4423807268AAB12388D91CB942CB
:10C9000098D8022192F90020E954238801339BB280
:10C910000A212380E954238801339BB22380EA54FF
:10C920002388013323803389002B40F0A180338A90
:10C930005BB1CDE900472B460722032106F1100029
:10C94000FFF74EFF002840F09F80338B5BB1CDE9AD
:10C9500000472B461522142106F11800FFF740FF6F
:10C96000002840F09180326A002A40F09080D6F88A
:10C970002480B8F1000F30D0B8F804302188981C1A
:10C980008A1C0244BA423FF655AFFE283FF652AF2A
:10C9900003336B54238801339BB2FF222380EA5474
:10C9A000238801339BB22380B8F80020EA54E918A9
:10C9B000120A4A702088023080B22080B8F8042021
:10C9C0005AB1D8F8081000296BD0284404F06EFE44
:10C9D0002388B8F804201344238096F82C30002BC9
:10C9E00040F09880307800284ED03388012B58D002
:10C9F000228802F1020CBC453FF61CAF012805D18C
:10CA00007378023313449F42FFF414AF023FBF1AFE
:10CA1000BFB202A905EB0C00ADF80870FFF786FE67
:10CA200090BB3178BDF80830022900F0B9807278E7
:10CA30009A4202D39F4280F0B180012940F0B28037
:10CA4000974293B2C0F0AE80ADF808300821BDF82F
:10CA50000830FE2B3FF6EEAE22880133AB5422881D
:10CA6000013292B22280A9542288134423800BE021
:10CA7000CDE900472B460622022106F10800FFF708
:10CA8000AFFE00283FF453AF05B0BDE8F08FB4F817
:10CA900000C00CF10603BB423FF6CCAE118805295D
:10CAA00001D80720F0E76FF4486E01EB0E039BB24C
:10CAB0004FF27D3E7345F4D95388052BF1D96FF4BD
:10CAC0004860181880B27045EBD94FF6FF7081426C
:10CAD00001D09942E5D8052305F80C3023880133AD
