:020000022000DC
:1070000000000420717302005973020031930200E2
:107010005D7302005F7302006173020000000000F4
:107020000000000000000000000000006373020088
:1070300065730200000000006773020069730200BC
:107040006B7302006B730200990803006B730200FC
:107050006B7302006B730200910703006B730200F5
:107060006B7302006B7302006B7302006B730200A0
:107070006B7302006B7302006B7302006B73020090
:107080006B730200B1B102006B7302006B730200FC
:107090006B7302006B73020039DE03006B73020036
:1070A0006B7302006B7302006B7302006B73020060
:1070B0006B7302006B730200000000000000000010
:1070C0006B7302006B7302006B7302006B73020040
:1070D0006B7302006B7302006B7302006B73020030
:1070E0006B7302006B730200C50404000000000013
:1070F000000000006B730200000000006B730200D0
:10710000000000000000000000000000000000007F
:10711000000000000000000000000000000000006F
:10712000000000000000000000000000000000005F
:10713000000000000000000000000000000000004F
:10714000000000000000000000000000000000003F
:10715000000000000000000000000000000000002F
:10716000000000000000000000000000000000001F
:10717000000000000000000000000000000000000F
:1071800000000000000000000000000000000000FF
:1071900000000000000000000000000000000000EF
:1071A00000000000000000000000000000000000DF
:1071B00000000000000000000000000000000000CF
:1071C00000000000000000000000000000000000BF
:1071D00000000000000000000000000000000000AF
:1071E000000000000000000000000000000000009F
:1071F000000000000000000000000000000000008F
:10720000344935480A1A02D0072291438D46334942
:1072100033480A1A06D00722914381F309880222D3
:1072200082F314882F483049304A00F041F8304842
:107230003049314A00F03CF830483149314A00F0D9
:1072400037F831483149324A00F032F83148324992
:10725000324A00F02DF832483249334A00F028F81B
:1072600032483349334A00F023F833483349002287
:1072700000F029F832483349002200F024F832485F
:107280003249091A18F01EF8314A90471F48204920
:10729000884205D00268043003B4904703BCF7E786
:1072A00000208646EC46002000212A4A9047FEE74F
:1072B000884207D0521A05D0037801300B70013193
:1072C000013AF9D17047884202D002700130FAE7E2
:1072D000704700000000042000E0032000000420AC
:1072E00000000420B45B0400842200209C240020C1
:1072F000CC730200CC7302009C0B0400B45B04004E
:107300008422002084220020600D0400600D04000F
:10731000600D0400600D0400600D0400600D0400A9
:10732000600D0400600D0400B15B0400CC5D04003E
:107330009C2400209C2400209C24002034730020E6
:107340003473002034730020347300203493002001
:1073500099730200253F0300FEE7FEE7FEE7FEE724
:10736000FEE7FEE7FEE7FEE7FEE7FEE700F002B815
:10737000FFF7FCBF0F484FF00701884385460E48D2
:1073800080470E48016841F470010160BFF34F8FE0
:10739000BFF36F8FFFF734BF09480A490A4A884292
:1073A00007D0521A05D0037801300B700131013A31
:1073B000F9D17047000004200991020088ED00E037
:0C73C0004C0D04007022002084220020EC
:1073CC0000B585B00190019B002B0AD0074B43F010
:1073DC0001030393019B9B010293039B0298984723
:1073EC0000E000BF05B05DF804FB00BF700D0400A9
:1073FC0000B583B00190019B002B0AD04FF47A703A
:10740C00FFF7DEFF019B013B0193019B002BF5D1A4
:10741C0000E000BF03B05DF804FB08B50CF09EFF64
:10742C0000BF08BD00B589B0039002910192019B89
:10743C00002B33D00023079303230693029A079B58
:10744C001344019A194600200CF038FF0590079A56
:10745C00059B13440793019A059BD31A0193059B33
:10746C00002B13D10F4B1B7883F00103DBB2002BE5
:10747C0013D10120FFF7BCFF069B013B0693069B33
:10748C00002B03D1074B00221A7007E0054B012299
:10749C001A70019B002BD1D100E000BF00BF09B0D6
:1074AC005DF804FB9C24002000B585B0039002918C
:1074BC00054B00934023054A0299039800F012F8FB
:1074CC0000BF05B05DF804FB31740200A02400205D
:1074DC0082B0019000BF02B0704782B0019000BF33
:1074EC0002B0704700B5A1B00590049103920293CD
:1074FC00049807F021FB039B1593029B1693002322
:10750C00179300238DF8603000231993229B1A9354
:10751C0000231F930FA91F9B0822049807F0E6FB7A
:10752C0008231F93119B1293BDF84030ADF84C30DB
:10753C00BDF84230ADF84E3000238DF851309DF837
:10754C003C3003F00303DBB2012B26D10F9BC3F3BA
:10755C0095231C939DF83C30C3F3C203DBB28DF82A
:10756C005030BDF83C30C3F38313DBB21B931B9B31
:10757C009A0009A91F9B049807F0B8FB1B9B9B0062
:10758C001F9A13441F9312AA09A915AB0093134613
:10759C001B9A1C9801F01EF82FE09DF83C3003F06C
:1075AC000303DBB2022B28D1BDF83E30C3F38913A1
:1075BC009BB21E939DF83C30C3F3C203DBB28DF833
:1075CC0050301E9B082B28BF08231D9307A91F9B17
:1075DC001D9A049807F08AFB1F9A1D9B13441F9356
:1075EC001E9A1D9BD31A1E9315AB12AA07A81D99A0
:1075FC0001F092F81E9B002BE3D1049807F0ABFA34
:10760C0000BF21B05DF804FB00B583B00190019B75
:10761C001B781A460C4B9B5C002B05D0019B04334A
:10762C0018460AF02BFC0BE0019B1B781A46064B04
:10763C009B5C002B04D1019B0C33184609F09AFD7E
:10764C0000BF03B05DF804FBB446002000B587B062
:10765C000390029113468DF8073000230593039B8A
:10766C001B781A46114B9B5C002B09D0039B0433EF
:10767C009DF80720029918460AF062FC05900FE06D
:10768C00039B1B781A46094B9B5C002B08D1039B70
:10769C000C339DF807200299184609F0E3FD05907C
:1076AC00059B184607B05DF804FB00BFB4460020EC
:1076BC0082B001900091034B01221A7000BF02B0FE
:1076CC00704700BF2025002030B58DB003468DF8E3
:1076DC0007301A4B02AC1D460FCD0FC495E80F00B6
:1076EC0084E80F00062302934FF0FF3303934FF00F
:1076FC00FF3304934FF0FF3305934FF0EB73089374
:10770C009DF80730002B01D00D4A00E0002202AB9F
:10771C0019460C4808F038F80B900B9B0A930A9BFF
:10772C00002B04D0084A43210A9802F0BDFB074AFB
:10773C009DF80730137000BF0DB030BDD40D0400A0
:10774C00BD76020084220020780D04002125002043
:10775C0000B583B000238DF807309DF8073018462C
:10776C00FFF7B2FF00BF03B05DF804FB00B589B0B2
:10777C00039002910192019B8DF81F30124B002255
:10778C001A709DF81F301A4602991048FFF75EFFD9
:10779C000690069B0593059B002B04D00C4A5321A5
:1077AC00059802F081FB00BF0A4B1B78002B07D019
:1077BC00054B1B78DBB283F00103DBB2002BF3D15A
:1077CC0000BF09B05DF804FB2025002084220020B6
:1077DC00780D04002125002000B585B0039002919E
:1077EC00054B00934023054A02990398FFF77AFE54
:1077FC0000BF05B05DF804FB79770200E02400209F
:10780C0082B0019000BF02B07047000000B583B099
:10781C0001900548FFF7F8FE0020FFF755FF00BF69
:10782C0003B05DF804FB00BF8422002082B00190FD
:10783C00019BDB6801225A7100BF02B07047000047
:10784C0000B583B04FF0FF330193FFF7E6FD042141
:10785C00114800F0DBFD0190019B002B03DA0F496E
:10786C0041200BF009FF0C48FFF7E0FFFFF770FF1A
:10787C0004210B4800F0CAFD0190019B002B03DA98
:10788C00064948200BF0F8FE0548FFF7CFFF00BF74
:10789C0003B05DF804FB00BF180D0400240E0400B7
:1078AC00280D040000B583B001900091019B1B686A
:1078BC001B6800990198984700BF03B05DF804FB62
:1078CC0000B583B00190019B1B685B6801989847D9
:1078DC0000BF03B05DF804FB00B583B00190019BC1
:1078EC001B689B680198984700BF03B05DF804FBC8
:1078FC0082B001900B468DF80330019BDB689DF83C
:10790C0003201A7100BF02B0704782B00190019B36
:10791C00DB681B79184602B0704782B00190019B5E
:10792C00DB6801225A7100BF02B0704782B001902F
:10793C00019BDB685B79184602B0704700B585B0D7
:10794C00019000910C4B01221A700C4807F058F86A
:10795C000390039B002B01D0039B08E0084807F021
:10796C00B5FB084A084BD31ADB08029300231846D0
:10797C0005B05DF804FB00BF8C260020380D040018
:10798C00840E0400E80C0400100C0400024A034BA3
:10799C00D31ADB0818467047E80C0400100C0400DE
:1079AC0000B587B001900B468DF803309DF803307D
:1079BC00002B1FD0FFF7EAFF04900023059313E080
:1079CC00059B9B000E4A13440393039B1B881A468A
:1079DC00019B1B689A4204D1019B059A1A600023F3
:1079EC0009E0059B01330593059A049B9A42E7D362
:1079FC00052300E00023184607B05DF804FB00BF28
:107A0C007022002000B585B001900B468DF8033034
:107A1C009DF8032001AB11461846FFF7C1FF034642
:107A2C00002B07D1019BDB00054A13440393039BF6
:107A3C001B6800E00023184605B05DF804FB00BF8E
:107A4C00100C040084B001900B468DF80330019BA0
:107A5C00DB00174A134402939DF80330013B032BC0
:107A6C001CD801A252F823F0857A02008D7A02000C
:107A7C00957A02009F7A020002238DF80F3011E0F4
:107A8C0004238DF80F300DE0029B1B798DF80F301D
:107A9C0008E0029B5B798DF80F3003E000238DF832
:107AAC000F3000BF9DF80F30184604B0704700BF70
:107ABC00100C040084B00190009100238DF80F305D
:107ACC00019B1B7803F00403DBB2002B24D0019B39
:107ADC001B78C3F30103DBB2012B02D0022B0CD0B9
:107AEC0017E0009B1B68019A1288C2F38312D2B272
:107AFC0013449A1C009B1A600BE0009B1B68019AB4
:107B0C005288C2F3891292B213449A1C009B1A60D9
:107B1C0000BF01238DF80F309DF80F30184604B0CC
:107B2C007047000000B58BB00023ADF826303E48FE
:107B3C0005F097FD3D4805F094FD3D4B9B68049383
:107B4C003C4B1B680693049A069B134002339B0024
:107B5C00374A13440433089304AB19460898FFF7CB
:107B6C00A9FF0346002B09D0049A069B134002334D
:107B7C009B002F4A134404330893EDE700BF002306
:107B8C00079311E0049B5A1C0492069A1340079A1F
:107B9C00920001A90A44264902339B000B445B68FE
:107BAC001360079B01330793079B012BEAD99DF8C0
:107BBC000430C3F30103DBB2012B10D0022B1CD118
:107BCC00BDF80A30ADF82630BDF80630C3F3891382
:107BDC009BB203339A08049B1344049313E0BDF83F
:107BEC000A30ADF82630BDF80430C3F38313DBB292
:107BFC001A46049B1344049305E00F494FF4C270DA
:107C0C000BF03AFD00BF094805F037FD0590059BC8
:107C1C00002B02D0049B064A9360BDF82630184610
:107C2C000BB05DF804FB00BFA42A0020A02A0020A2
:107C3C008C260020A8220020940E040000B585B0EC
:107C4C000021074805F042FC0390039B0293029B22
:107C5C0083F310030193019B184605B05DF804FBF8
:107C6C00A82A002000B589B00390029101920093DC
:107C7C00039B1B0C0793FFF7E1FF0690FFF786FEB3
:107C8C000246079B934204D3214940F2A9100BF002
:107C9C00F3FC069B1904009B5A1C0A9B1340079A81
:107CAC000A431C4902339B000B445A60009A0A9BFE
:107CBC00134002339B00174A134404330593039B70
:107CCC0003F00703D9B2059A137861F3C503137057
:107CDC00019B03F00F03D9B2059A138861F3891342
:107CEC001380029BC3F31501059A136861F39F235C
:107CFC001360059A1378012161F301031370059A3F
:107D0C0013786FF38203137000BF09B05DF804FBA6
:107D1C00940E04008C26002000B58DB003900291C7
:107D2C0013468DF80730039B02330A9301238DF819
:107D3C00273000238DF81B300DF11B03184602F081
:107D4C0005FE404B5A68029B1A603F4B1A683D4B2C
:107D5C0099683C4B5B68CB1A134401330B9314E0CA
:107D6C0001213A4805F041FCFFF7DCFE079007992A
:107D7C00364805F03AFC344B1A68324B9968314B53
:107D8C005B68CB1A134401330B930A9A0B9B9A42F0
:107D9C00E6D89DF82730002B48D0002305939DF89A
:107DAC000730002B17D09DF81430012262F3010329
:107DBC008DF814309DF8143043F004038DF8143012
:107DCC00039B03F00F03DAB2BDF8143062F389138E
:107DDC00ADF8143016E09DF81430022262F3010362
:107DEC008DF814309DF8143043F004038DF81430E2
:107DFC00039BC3F309039AB2BDF8163062F38F13D9
:107E0C00ADF816300F4B5A680F4B1B6813400233FA
:107E1C009B000C4A134404330893059A089B1A6080
:107E2C00084B5A680A9B1344064A53609DF81B3052
:107E3C00184602F0A1FD9DF8273018460DB05DF8EC
:107E4C0004FB00BF8C260020A8220020A82A0020BA
:107E5C0000B58BB005900491039202931F4B1B68E5
:107E6C00079306AB012219460298FFF755FF03460C
:107E7C00002B24D0069B023309930023089311E0B6
:107E8C00089B9B00039A1A44099B591C099107995A
:107E9C000B401268124902339B000B445A60089B3A
:107EAC0001330893089A029B9A42E9D3069A079BDE
:107EBC0000931346029A04990598FFF7D3FE084BDA
:107ECC001B78002B05D000BF00F096F80346002B62
:107EDC00FAD100BF0BB05DF804FB00BFA822002054
:107EEC008C26002000B583B0019000910023002265
:107EFC0000990198FFF7ACFF00BF03B05DF804FBDD
:107F0C0000B587B0039002910192019B059305AADD
:107F1C00012302990398FFF79BFF00BF07B05DF8A0
:107F2C0004FB00B587B00390029101920093019B72
:107F3C000493009B059304AA022302990398FFF76C
:107F4C0087FF00BF07B05DF804FB00B589B0039054
:107F5C00029101920093019B0593009B06930A9B4F
:107F6C00079305AA032302990398FFF771FF00BF3B
:107F7C0009B05DF804FB00B589B003900291019241
:107F8C000093019B0493009B05930A9B06930B9B08
:107F9C00079304AA042302990398FFF759FF00BF23
:107FAC0009B05DF804FB00B58BB00390029101920F
:107FBC000093019B0593009B06930C9B07930D9BD1
:107FCC0008930E9B099305AA052302990398FFF7C2
:107FDC003FFF00BF0BB05DF804FB0000054B9A6837
:107FEC00044B5B689A420CBF01230023DBB218469A
:107FFC00704700BF8C26002000B599B0FFF7EEFF4C
:10800C000346002B01D00023C0E19B4B0022C3F898
:10801C001824BFF34F8F00BF974B9B680493974B6B
:10802C001B681093049A109B134002339B00924AD6
:10803C001344043311930023179300231693002346
:10804C000F9304AB19461198FFF734FD0346002B30
:10805C0019D0894BD3F81834002B14D1864B5A689D
:10806C00049B9A4205D8844B5B68834A9360002337
:10807C008CE1049A109B134002339B007E4A1344FC
:10808C0004331193DDE70023159311E0049B5A1C74
:10809C000492109A1340159A920001A90A44764949
:1080AC0002339B000B445B681360159B01331593E3
:1080BC00159B012BEAD99DF8043003F00303DBB2C6
:1080CC00022B40F09C80BDF80630C3F389139BB2A1
:1080DC000D93BDF80630C3F389139BB2502B28BF08
:1080EC0050239BB20C930C9BC3F309039AB2BDF8BB
:1080FC00063062F38F13ADF806300C9B08330B93EC
:10810C009DF80430C3F3C203DBB20F930B995C48A8
:10811C0006F081FC1790179B002B00F0D38017986A
:10812C0006F00AFD01A9169B0822179806F0C0FD5F
:10813C00169B08331693049BDA43109B13400133B0
:10814C009B000A930C9A0A9B9A4242D90A9B002BD9
:10815C0008D0049A109B134002339B00464A1344E8
:10816C00043300E0474B08930A9B002B02D00A9B78
:10817C00DBB201E00C9BDBB28DF81F300A9B002BAD
:10818C0001D0404B00E0002306930A9B002B06D045
:10819C000C9BDAB20A9BDBB2D31ADBB200E00023F1
:1081AC008DF817309DF81F20169B0899179806F02C
:1081BC007FFD9DF81F30169A13441693069B002BD7
:1081CC0016D09DF81720169B0699179806F070FD8F
:1081DC000EE0049A109B134002339B00264A134472
:1081EC0004330993169B0C9A0999179806F060FDB5
:1081FC000D9B03339A08049B1344049362E09DF88F
:10820C00043003F00303DBB2012B5BD1BDF8043067
:10821C00C3F38313DBB2062B28BF0623DAB2BDF8F7
:10822C00043062F38913ADF80430BDF80430C3F3A5
:10823C008313DBB202330E939DF80430C3F3C203F5
:10824C00DBB20F930E9B9B0019460D4806F0E3FB27
:10825C001790179B002B35D0179806F06DFC01A9D1
:10826C00169B0822179806F023FD169B08331693CD
:10827C00002315931DE000BF8C260020A8220020AF
:10828C00380D040098260020049B5A1C0492109A66
:10829C00134002339B003F4A1344191D169B0422C2
:1082AC00179806F005FD169B04331693159B0133A6
:1082BC001593BDF80430C3F38313DBB21A46159B38
:1082CC009342E1D3179B002B40D0324BD3F81034A0
:1082DC001493304BD3F81834002B1BD0179806F09E
:1082EC003AFC4DE000238DF84F301498FFF71EFB3D
:1082FC000346002B02D001238DF84F309DF84F30F0
:10830C00002B03D017991498FFF7CCFA149BDB6859
:10831C001B681493149B002BE4D1179806F01BFCDC
:10832C0000238DF803300DF10303184602F00EFB09
:10833C00184BD3F81834002B02D1049B154A9360C8
:10834C009DF80330184602F017FB19E0114BD3F8D7
:10835C001034129306E01298FFF7BEFA129BDB68FA
:10836C001B681293129B002BF5D10B4A0B4BD31AA3
:10837C00DB081B0443F0020309491846FFF7B2FD62
:10838C00FFF72CFE034683F00103DBB2184619B04D
:10839C005DF804FB8C260020380C0400100C040043
:1083AC00EC0E040000B585B00023039323E0164BBC
:1083BC00D3F81034029301238DF807300FE00298A4
:1083CC00FFF7A3FA03461A46039B934203D10023FB
:1083DC008DF8073006E0029BDB681B680293029B5A
:1083EC00002BECD19DF80730002B01D0039B07E04C
:1083FC00039B01330393039B092BD8DD4FF0FF3311
:10840C00184605B05DF804FB8C26002000B585B03D
:10841C0001900B468DF80330FFF7C4FF0390039BCC
:10842C00B3F1FF3F01D1039B22E0039BDBB2194662
:10843C000198FFF75DFA104BD3F81034002B08D1DC
:10844C000D4A019BC2F81034019BDB6800221A60B4
:10845C000DE0094BD3F81034DA68019BDB68126825
:10846C001A60054BD3F81034DB68019A1A60039B31
:10847C00184605B05DF804FB8C26002000B583B0CF
:10848C000C4BD3F8103401930A4B01221A7009E0FB
:10849C000198FFF742FA0198FFF712FA019BDB688B
:1084AC001B680193019B002BF2D100BF00BF03B0EE
:1084BC005DF804FB8C26002082B00190009100BF77
:1084CC0002B0704710B584B003900291039BDB8817
:1084DC00002B0AD0039BDB881A461F4B00931346D4
:1084EC001E4A1F49029805F005FA039B1B7A052BBF
:1084FC002ED0039B5B7A002B12D0039B9B881A46D1
:10850C00039B1B7A19461046FFF79CFA03461A4642
:10851C00144B53F822301A461349029805F0EAF925
:10852C00039B1B6819460298FFF7C6FF039B1B7A37
:10853C001A460E4B53F82240039B9B880021184689
:10854C00FFF760FA034622460949029805F0D2F972
:10855C0000BF04B010BD00BF200F0400300F04009A
:10856C00680F0400C0220020800F0400AC22002001
:10857C00840F040000B585B00390029113468DF86A
:10858C000730039B1B7A052B0FD0039B5B7A002BC8
:10859C0006D00D4B1B681A460C49029805F0AAF937
:1085AC000B49029805F0A6F907E09DF80730002B5F
:1085BC0003D00749029805F09DF9029805F078F967
:1085CC0000BF05B05DF804FBC0220020800F040042
:1085DC00900F040030B58BB0079006910592049370
:1085EC000E9B1B7B8DF827300E9B00221A730E9965
:1085FC000498FFF767FF059B062B7FD801A252F862
:10860C0023F000BF2D860200378602004786020049
:10861C005B86020079860200A1860200D1860200E8
:10862C0007990E9805F066F969E0069B1B681A46D7
:10863C0007990E9805F05EF961E0069B1A68069B97
:10864C0004331B6807990E9805F054F957E0069B04
:10865C001A68069B04331968069B08331B68009341
:10866C000B4607990E9805F045F948E0069B1968EA
:10867C00069B04331868069B08331B68069A0C3259
:10868C0012680192009303460A4607990E9805F06A
:10869C0031F934E0069B1868069B04331C68069B72
:1086AC0008331B68069A0C32126806991031096857
:1086BC000291019200932346024607990E9805F009
:1086CC0019F91CE0069B1C68069B04331D68069B6D
:1086DC0008331B68069A0C32126806991031096827
:1086EC0006981430006803900291019200932B4677
:1086FC00224607990E9805F0FDF800E000BF002215
:10870C000E990498FFF736FF0E9B9DF827201A73DD
:10871C0000BF0BB030BD00BF00B587B00390029115
:10872C0001920093029B082B60D8009B1B7B8DF859
:10873C001330009B00221A7300990198FFF7C2FEB8
:10874C000023059314E0059A029B9A4209D2039ADE
:10875C00059B13441B781A462649009805F0CAF865
:10876C0003E02549009805F0C5F8059B01330593F6
:10877C00059B072BE7D92149009805F0BBF800238E
:10878C00059326E0059A029B9A421BD2039A059BFD
:10879C0013441B788DF812309DF812307E2B0AD8BA
:1087AC009DF81230184616F018FC0346002B02D028
:1087BC009DF8123000E02E231A461149009805F05E
:1087CC0099F803E00F49009805F094F8059B0133E4
:1087DC000593059B072BD5D9012200990198FFF72A
:1087EC00C9FE009B9DF813201A7300E000BF07B070
:1087FC005DF804FB940F04009C0F0400A00F040010
:10880C00A40F0400A80F040000B583B00190019BD5
:10881C001B68184600F01FF90346002B04D10B49C6
:10882C004FF4F6700AF028FF019B1B681F2B02D82F
:10883C004FF0A04306E0019B1B6803F01F02019B55
:10884C001A60034B184603B05DF804FBAC0F040030
:10885C000003005000B585B00190084611461A4639
:10886C0003468DF803300B468DF8023013468DF815
:10887C00013001AB1846FFF7C7FF03909DF80320AA
:10888C009DF802305B001A439DF801309B001A439F
:10889C009DF818301B0242EA03019DF81C301B04A2
:1088AC00019A1943039B02F5E07243F8221000BFB2
:1088BC0005B05DF804FB00B585B00390002301936F
:1088CC00002300930023012201210398FFF7C2FF2C
:1088DC0000BF05B05DF804FB00B585B003900B46F6
:1088EC008DF80B309DF80B30002201920022009283
:1088FC00002200210398FFF7ADFF00BF05B05DF823
:10890C0004FB00B585B0019001AB1846FFF77CFF66
:10891C000390019B012202FA03F31946039800F01D
:10892C0086F800BF05B05DF804FB00B585B001907A
:10893C0001AB1846FFF768FF0390019B012202FA76
:10894C0003F31946039800F07CF800BF05B05DF8FE
:10895C0004FB00B585B0019001AB1846FFF754FF3E
:10896C000390039BD3F804350293029BDA43019BDB
:10897C00012101FA03F31A40039BC3F80825019B5C
:10898C0001229A40029B1A40039BC3F80C2500BF9E
:10899C0005B05DF804FB00B583B001900091009B1D
:1089AC00002B03D10198FFF7C0FF02E00198FFF7FD
:1089BC00A8FF00BF03B05DF804FB00B585B00190C3
:1089CC0001AB1846FFF720FF0390039800F01FF847
:1089DC000246019B22FA03F303F00103184605B08B
:1089EC005DF804FB00B585B0019001AB1846FFF7AC
:1089FC000BFF0390039800F012F80246019B22FA39
:108A0C0003F303F00103184605B05DF804FB82B0D4
:108A1C000190019BD3F81035184602B0704782B014
:108A2C000190019BD3F80435184602B0704782B010
:108A3C0001900091019B009AC3F8082500BF02B079
:108A4C00704782B001900091019B009AC3F80C25ED
:108A5C0000BF02B0704784B00190019B5B09029388
:108A6C0000230393029B002B03D0029B012B04D009
:108A7C0007E04FF0FF33039303E04FF6FF730393CC
:108A8C0000BF019B03F01F030193039A019B22FA81
:108A9C0003F303F00103002B14BF01230023DBB20B
:108AAC00184604B07047000000B585B00190019BDA
:108ABC00032B03D911493A200AF0DEFD104A019B21
:108ACC0013441B781846FFF78DFF0346002B14BF89
:108ADC00012300238DF80F309DF80F30002B14BFAD
:108AEC0001230023DBB283F00103DBB203F00103AB
:108AFC00DBB2184605B05DF804FB00BFDC0F0400C8
:108B0C002010040000B583B00190019B032B03D906
:108B1C00074941200AF0B0FD064A019B13441B781B
:108B2C0000211846FFF737FF00BF03B05DF804FBC8
:108B3C00DC0F04002010040000B583B00190019BF1
:108B4C00032B03D9074947200AF096FD064A019BDF
:108B5C0013441B7801211846FFF71DFF00BF03B01B
:108B6C005DF804FBDC0F04002010040000B583B09A
:108B7C000023019305E00198FFF7DEFF019B013311
:108B8C000193019B032BF6D900BF00BF03B05DF826
:108B9C0004FB00B583B00023019305E00198FFF7B7
:108BAC00B1FF019B01330193019B032BF6D900BF4D
:108BBC0000BF03B05DF804FB00B583B00190019BCE
:108BCC00032B03D907495F200AF056FD064A019B87
:108BDC0013441B781846FFF7BCFE00BF03B05DF8CA
:108BEC0004FB00BFDC0F04002010040000B583B0B0
:108BFC000023019309E0094A019B13441B78184692
:108C0C00FFF759FE019B01330193019B032BF2D912
:108C1C00FFF7ACFF00BF03B05DF804FB20100400AD
:108C2C0000B585B00190019B032B03D91149AC20F1
:108C3C000AF022FD104A019B13441B781846FFF7DB
:108C4C00BCFE0346002B14BF012300238DF80F300C
:108C5C009DF80F30002B14BF01230023DBB283F0EF
:108C6C000103DBB203F00103DBB2184605B05DF87B
:108C7C0004FB00BFDC0F04002410040000B583B01B
:108C8C00002301930AE0094A019B13441B7803213A
:108C9C001846FFF721FE019B01330193019B032B27
:108CAC00F1D900BF00BF03B05DF804FB2410040031
:108CBC0084B001904FF0FF330293002303930DE037
:108CCC000A4A039B13441B781A46019B934202D118
:108CDC00039B029305E0039B01330393039B032B3C
:108CEC00EED9029B184604B0704700BF2410040054
:108CFC0000B583B00190019B032B03D90549CB2010
:108D0C000AF0BAFC044A019B13441B78184603B0C2
:108D1C005DF804FBDC0F04002410040000B583B0E4
:108D2C000190019B03F00103002B01D0FFF75EFFC4
:108D3C00019B03F00203002B01D0FFF79FFF00BF44
:108D4C0003B05DF804FB0000BFF34F8F00BF064B70
:108D5C00DB6803F4E0620449044B1343CB60BFF3BC
:108D6C004F8F00BF00BFFDE700ED00E00400FA05E7
:108D7C0082B0164B1B680193154B1B680093019B2B
:108D8C00082B1FD1009B052B1AD801A252F823F0F7
:108D9C00B58D0200B98D0200BD8D0200C18D02009F
:108DAC00C58D0200C98D020001230CE001230AE0ED
:108DBC00012308E0012306E0012304E0012302E083
:108DCC00012300E00023184602B070473001001068
:108DDC003401001082B0164B1B680193154B1B68B5
:108DEC000093019B082B1FD1009B052B1AD801A2C5
:108DFC0052F823F0198E02001D8E0200218E020003
:108E0C00258E0200298E02002D8E020001230CE01B
:108E1C0001230AE0012308E0012306E0012304E01A
:108E2C00012302E0012300E00023184602B0704742
:108E3C00300100103401001082B0164B1B680193F6
:108E4C00154B1B680093019B082B1FD1009B052B16
:108E5C001AD801A252F823F07D8E0200818E0200F6
:108E6C00858E0200898E02008D8E0200918E02008A
:108E7C0001230CE000230AE0002308E0002306E0B5
:108E8C00002304E0002302E0002300E00023184646
:108E9C0002B07047300100103401001082B0164B44
:108EAC001B680193154B1B680093019B082B1FD16A
:108EBC00009B052B1AD801A252F823F0E18E020078
:108ECC00E58E0200E98E0200ED8E0200F18E0200AA
:108EDC00F58E020001230CE000230AE0002308E0D9
:108EEC00002306E0002304E0002302E0002300E05E
:108EFC000023184602B070473001001034010010F6
:108F0C0082B0164B1B680193154B1B680093019B99
:108F1C00082B1FD1009B052B1AD801A252F823F065
:108F2C00458F0200498F02004D8F0200518F0200C5
:108F3C00558F0200598F020001230CE000230AE038
:108F4C00002308E0002306E0002304E0002302E0F5
:108F5C00002300E00023184602B0704730010010D7
:108F6C003401001082B0164B1B680193154B1B6823
:108F7C000093019B082B1FD1009B052B1AD801A233
:108F8C0052F823F0A98F0200AD8F0200B18F0200BE
:108F9C00B58F0200B98F0200BD8F020001230CE0D7
:108FAC0000230AE0002308E0002306E0002304E08D
:108FBC00002302E0002300E00023184602B07047B3
:108FCC00300100103401001082B0164B1B68019365
:108FDC00154B1B680093019B082B1FD1009B052B85
:108FEC001AD801A252F823F00D9002001190020041
:108FFC0015900200199002001D90020021900200B1
:10900C0001230CE001230AE0012308E0012306E020
:10901C00012304E0012302E0012300E000231846B1
:10902C0002B07047300100103401001082B0164BB2
:10903C001B680193154B1B680093019B082B1FD1D8
:10904C00009B052B1AD801A252F823F07190020054
:10905C0075900200799002007D90020081900200D0
:10906C008590020000230CE000230AE0002308E0B6
:10907C00002306E0012304E0012302E0012300E0C9
:10908C000023184602B07047300100103401001064
:10909C0008B5FFF7CBFF0346002B07D04FF010238A
:1090AC004FF08042D3F80832C2F8583500BF08BDE3
:1090BC0000BF044BD3F80034002BFAD000BF00BF24
:1090CC00704700BF00E0014000B583B00190054A35
:1090DC00019BC2F80435FFF7EBFF00BF03B05DF84E
:1090EC0004FB00BF00E00140024B034A1A6000BFC2
:1090FC00704700BFE42200200090D00308B5FFF7B2
:10910C0037FE0346002B0ED04FF080430022C3F8ED
:10911C000C214FF080430022C3F810214FF0804304
:10912C000022C3F83825FFF755FE0346002B76D0F6
:10913C004FF08053734AD3F80434C2F820354FF003
:10914C008053704AD3F80834C2F824354FF080535A
:10915C006C4AD3F80C34C2F828354FF08053694A66
:10916C00D3F81034C2F82C354FF08053654AD3F83D
:10917C001434C2F830354FF08053624AD3F81834A7
:10918C00C2F834354FF080535E4AD3F81C34C2F821
:10919C0040354FF080535B4AD3F82034C2F8443545
:1091AC004FF08053574AD3F82434C2F848354FF067
:1091BC008053544AD3F82834C2F84C354FF08053BE
:1091CC00504AD3F82C34C2F850354FF080534D4AE6
:1091DC00D3F83034C2F854354FF08053494AD3F8A1
:1091EC003434C2F860354FF08053464AD3F83834E3
:1091FC00C2F864354FF08053424AD3F83C34C2F87D
:10920C0068354FF080533F4AD3F84034C2F86C3580
:10921C004FF080533B4AD3F84434C2F87035FFF713
:10922C000BFE0346002B02D0374B384A1A60FFF76F
:10923C0035FE0346002B03D0354BFB22C3F8182513
:10924C00FFF75EFE0346002B0AD0324B1B6823F05F
:10925C000F02314B1B6803F00F032E4913430B60B5
:10926C00FFF780FE0346002B03D02C4B4FF400720B
:10927C001A60FFF7A9FE0346002B0DD04FF0804378
:10928C00D3F8003403F00103002B05D04FF08043DA
:10929C006FF00102C3F80024214BD3F88830204A28
:1092AC0043F47003C2F88830BFF34F8F00BFBFF395
:1092BC006F8F00BFFFF7ECFE4FF01023D3F8003296
:1092CC00002B05DB4FF01023D3F80432002B15DAFA
:1092DC000120FFF7F9FE4FF010231222C3F80022F1
:1092EC00FFF7E6FE4FF010231222C3F80422FFF71B
:1092FC00DFFE0020FFF7E8FEFFF726FDFFF7F4FE88
:10930C0000BF08BD00C000408C56004048810300DF
:10931C0000F00040E40E004058020010409602405D
:10932C0000ED00E01EF0040F1CBFEFF309800AE013
:10933C00EFF308800549064A884201D8904202D8CA
:10934C008D464FF00000034B18470000000004202E
:10935C0000E003209D93020000BF00BFBFF34F8FBE
:10936C0000BF064BDB6803F4E0620449044B134373
:10937C00CB60BFF34F8F00BF00BFFDE700ED00E0F7
:10938C000400FA0500B583B00190FFF7E7FF000079
:10939C0010B588B00390FFF771F800BFFEF72CFEF4
:1093AC000346002BFAD1039B0693584B9B6A0593FB
:1093BC00069B002B35D0564A564BD31ADB081B04A0
:1093CC0043F00100069B9B691A465349FEF798FD32
:1093DC004F4A504BD31ADB081B0443F00100069B89
:1093EC001968069B5C68069B9B68069AD26801927A
:1093FC00009323460A464949FEF7BDFD444A454BB6
:10940C00D31ADB081B0443F00100069B1A69069B68
:10941C005969069BDB6900930B464149FEF795FDA4
:10942C000AE03B4A3B4BD31ADB081B0443F0010315
:10943C003C491846FEF756FD344BDB6A03F0020339
:10944C00002B0AD0324A334BD31ADB081B0443F0EF
:10945C00010335491846FEF745FD0023079320E02C
:10946C000122079B02FA03F31A46059B1340002BBB
:10947C0014D02E4A079B52F82330002B0ED0244ACE
:10948C00244BD31ADB081B0443F00100274A079B2B
:10949C0052F823301A462649FEF732FD079B01335A
:1094AC000793079B192BDBD9059B03F08003002B3B
:1094BC000CD0174A174BD31ADB081B0443F00103DB
:1094CC00124A526B1B491846FEF71AFD059B03F412
:1094DC000043002B0CD00E4A0E4BD31ADB081B0496
:1094EC0043F00103094A926B13491846FEF708FD35
:1094FC00124B1B6803F00103002B00D000BE039835
:10950C00FFF740FF00BF08B010BD00BF00ED00E04A
:10951C00580C0400100C0400341004004C1004000F
:10952C0084100400AC100400E0100400E8220020B9
:10953C00241104003011040050110400F0ED00E07F
:10954C0086B0039002910192039B5B090593059BE6
:10955C005B01039AD31A0493029B059A1A60019B30
:10956C00049A1A6000BF06B07047000084B00190E6
:10957C000091002303931FE0019B002B10D0124A93
:10958C00039B52F82330019A9A4209D80F4A039B45
:10959C0052F823200E49039B51F823309A4206D1EE
:1095AC000A4A039B52F82330009A9A4201D2039B39
:1095BC0006E0039B01330393039B062BDCD90023AA
:1095CC00184604B0704700BF4C1604008416040003
:1095DC006816040000B585B0019002AA03AB1946C9
:1095EC000198FFF7ADFF039B074A52F82310029B2B
:1095FC0001229A40039B0A43034941F8232000BFF0
:10960C0005B05DF804FB00BFAC43002000B585B08D
:10961C00019001990020FFF7A9FF0390034A039BD7
:10962C0052F82330184605B05DF804FB4C160400C4
:10963C0000B585B0019002AA03AB19460198FFF75B
:10964C007FFF039B084A52F82320029B22FA03F364
:10965C0003F00103002B14BF01230023DBB21846D7
:10966C0005B05DF804FB00BFAC43002000B585B02D
:10967C00019002AA03AB19460198FFF761FF039B07
:10968C00084A52F82310029B012202FA03F3DA4330
:10969C00039B0A40034941F8232000BF05B05DF845
:1096AC0004FB00BFAC43002000B583B00023019342
:1096BC000023019305E00198FFF78CFF019B013318
:1096CC000193019B1B2BF6D9034B01221A7000232B
:1096DC00184603B05DF804FBB043002000B589B018
:1096EC00019000912E4B1B7883F00103DBB2002B11
:1096FC0002D048F208134EE0019B002B02D148F235
:10970C000E1348E0009B002B02D148F20E1342E0EE
:10971C00009B1B680493049B002B03D0049BB3F5A4
:10972C00006F02D948F2071335E01C210498FFF7AB
:10973C001DFF03901B4A039B52F8233006931A4AD1
:10974C00039B52F82330079348F2041305931EE051
:10975C000698FFF75BFF02900698FFF769FF034638
:10976C00002B0DD0002305930698FFF77FFF079B76
:10977C000E4A1A44019B1A60009B029A1A6009E077
:10978C00079A029B13440793069B01330693069B8F
:10979C001B2BDDD9059B184609B05DF804FB00BFF7
:1097AC00B043002068160400A0160400AC2A002068
:1097BC0000B587B0019000230493019B039303AA87
:1097CC0004AB11461846FFF789FF0590059B002B4B
:1097DC0001D000230493049B184607B05DF804FBEA
:1097EC0000B585B00190174B1B7883F00103DBB2F9
:1097FC00002B20D1019B002B1FD0002303930023AF
:10980C00029314E0039B104A1344019A9A4204D128
:10981C000298FFF7DFFE00BF10E00298FFF7F6FE9C
:10982C000246039B13440393029B01330293029B56
:10983C001B2BE7D902E000BF00E000BF05B05DF8CC
:10984C0004FB00BFB0430020AC2A002084B00346C8
:10985C008DF807309DF807305B08DBB21A460D4BCC
:10986C009B5C8DF80F309DF8073003F00103002B43
:10987C0004D09DF80F301B09DBB204E09DF80F30CB
:10988C0003F00F03DBB28DF80E309DF80E30184646
:10989C0004B07047C843002084B003460A468DF8D4
:1098AC00073013468DF806309DF8073003F001039E
:1098BC00002B01D00F2300E0F0238DF80F309DF822
:1098CC00073003F00103002B04D09DF806301B0178
:1098DC00DBB201E09DF806308DF80E309DF80730B4
:1098EC005B08DBB21A46114B9A5C9DF807305B089B
:1098FC00DBB219469DF80F301340DAB20B4B5A54B9
:10990C009DF807305B08DBB21A46084B9A5C9DF851
:10991C0007305B08DBB219469DF80E301343DAB200
:10992C00024B5A5400BF04B0704700BFC84300201C
:10993C0000B585B003468DF807300023039310E083
:10994C000F4B1A68039BDB0013440293029B1B789A
:10995C009DF807209A4201D1029B0DE0039B013335
:10996C000393084B1B781A46039B9342E8DB06498A
:10997C00882009F081FE0023184605B05DF804FB31
:10998C00B4430020B8430020C816040000B585B0CD
:10999C0003460A468DF8073013468DF806309DF8BD
:1099AC0007301846FFF7C4FF0390039B002B0BD026
:1099BC00039B5B68002B07D0039B5B689DF806102C
:1099CC009DF807201046984700BF05B05DF804FBD2
:1099DC002DE9F04F87B003460A468DF80F30134639
:1099EC008DF80E309DF80F301846FFF72FFF034609
:1099FC00042B00F2C28001A252F823F01D9A02003F
:109A0C00919A0200AD9A0200DD9A0200F39A0200CC
:109A1C009DF80E30002B00F0AD809DF80F30012129
:109A2C001846FFF739FF00238DF817300DF1170397
:109A3C00184600F08BFF9DF80F104FF001024FF00D
:109A4C000003A1F12004C1F1200003FA01F702FA8E
:109A5C0004F4274322FA00F0074302FA01F6494BBB
:109A6C00D3E9002346EA020100913B430193454BA5
:109A7C00DDE90012C3E900129DF81730184600F01A
:109A8C007BFF77E09DF80E30002B01D0022200E026
:109A9C0000229DF80F3011461846FFF7FDFE6CE0D2
:109AAC009DF80E30002B0CD09DF80F30032118467A
:109ABC00FFF7F2FE9DF80F3001211846FFF766FF05
:109ACC005BE09DF80F3001211846FFF7E5FE54E0EE
:109ADC009DF80E30002B4FD19DF80F300421184605
:109AEC00FFF7DAFE48E09DF80E30002B06D09DF80B
:109AFC000F3003211846FFF7CFFE3EE09DF80F30E4
:109B0C0000211846FFF7C8FE9DF80F3000211846BB
:109B1C00FFF73CFF00238DF816300DF116031846A5
:109B2C0000F014FF9DF80F104FF001024FF00003EE
:109B3C00A1F12006C1F1200003FA01F502FA06F6A4
:109B4C00354322FA00F0054302FA01F46FEA0408E7
:109B5C006FEA05090B4BD3E9002308EA020A09EA6C
:109B6C00030B084BC3E900AB9DF81630184600F008
:109B7C0003FF02E000BF00E000BF00BF07B0BDE87C
:109B8C00F08F00BFC043002000B583B00648074BE0
:109B9C001B685B080022194600F0B0FD019000BF65
:109BAC0003B05DF804FB00BF50230020BC43002031
:109BBC0000B587B001900023059328E01C4B1A6870
:109BCC00059BDB0013440493049B1B78184606F09A
:109BDC0029FD03468DF80F30049B5B78012B0CBFDD
:109BEC0001230023DBB21A469DF80F309A420CBFBA
:109BFC00012300238DF80E30049B1B789DF80E205A
:109C0C0011461846FFF7E4FE059B01330593094BFB
:109C1C001B781A46059B9342D0DB074BD3E90023F4
:109C2C00134301D0FFF7B0FF00BF07B05DF804FB92
:109C3C00B4430020B8430020C043002000B585B0D9
:109C4C0001900B468DF80330019BDBB21846FFF7F1
:109C5C006FFE0390039B1B78184606F0E3FC03464B
:109C6C008DF80B30039B5B78012B0CBF0123002379
:109C7C00DBB21A469DF80B309A420CBF012300232D
:109C8C008DF80A309DF80A30002B06D0054BD3E92D
:109C9C000023134301D1FFF777FF00BF05B05DF838
:109CAC0004FB00BFC043002000B58BB003900B46F3
:109CBC0001928DF80B30019B092B01D8072367E02B
:109CCC0006F0A4FB034683F00103DBB2002B09D0A2
:109CDC0006F038FB0990099B0893089B002B01D0D8
:109CEC00089B55E02C4A039B13602C4A9DF80B30C3
:109CFC0013702B4A019B136020220021294815F078
:109D0C000DFA29494FF000024FF00003C1E900237E
:109D1C0031E09DF80B30DB00039A134407930323C7
:109D2C008DF8143000238DF815309DF816306FF334
:109D3C0000038DF816309DF816306FF341038DF843
:109D4C0016309DF816306FF382038DF81630079B92
:109D5C009B788DF81530079B1B78184605AB134A7A
:109D6C00194606F05FFB0990099B0693069B002B96
:109D7C0001D0069B0CE09DF80B305A1E8DF80B2081
:109D8C00002BC6D10A4A00210A4800F07DFC03468C
:109D9C0018460BB05DF804FBB4430020B843002018
:109DAC00BC430020C8430020C0430020499C020053
:109DBC00BD9B02001817040000B583B0114B1B6843
:109DCC00002B04D1104940F2351009F055FC00234A
:109DDC0001930CE00B4B1A68019BDB0013441B78BE
:109DEC000121184606F09AFB019B01330193074BA6
:109DFC001B781A46019B9342ECD30023184603B000
:109E0C005DF804FBB4430020C8160400B8430020DE
:109E1C0086B003900291019201238DF817309DF8C2
:109E2C001730204A039B13601E4A029B53601D4A45
:109E3C00019B9360039B44F20102934212D0039B5B
:109E4C0044F20202934220D1019B164AD360154B77
:109E5C00DB681B68134A9361124BDB685B68114A21
:109E6C00D36112E0019B0F4A13610E4B1B699B6877
:109E7C000C4A53610B4B1B691B680A4A9361094BD3
:109E8C001B695B68074AD36100BF72B600BF00BF95
:109E9C009DF81730DBB2002BFAD162B600BF00BFC1
:109EAC0006B07047E843002000B583B002900091E3
:109EBC00019244F2010071466A4600F003F803B0C7
:109ECC0000BD00BF30B58BB007900691059272B6FD
:109EDC0000BFFEF7D3FA00BFFEF78EF80346002B47
:109EEC00FAD1079B44F2020293422FD0079B44F213
:109EFC000202934269D8079B44F20102934237D085
:109F0C00079B44F2010293425FD8079B012B05D0BB
:109F1C00079B41F2010293420CD056E0394A3A4B6E
:109F2C00D31ADB081B0443F0010338491846FDF72C
:109F3C00D9FF57E0334A344BD31ADB081B0443F0E8
:109F4C00010333491846FDF7CDFF4BE0059B099300
:109F5C002C4A2D4BD31ADB081B0443F00100099B40
:109F6C005B681A46099B1B682A49FDF7DAFF39E042
:109F7C00059B0893234A244BD31ADB081B0443F09C
:109F8C000104089B9D68089B9B68184605F0BEF968
:109F9C0003461846089B5B681946089B1B68069A83
:109FAC0002920193009103462A461B492046FDF775
:109FBC00FAFF144A144BD31ADB081B0443F00103B9
:109FCC0016491846FDF78EFF0CE00E4A0E4BD31ABD
:109FDC00DB081B0443F00103069A11491846FDF7F0
:109FEC008FFF00BF0F4B1B6803F00103002B00D049
:109FFC0000BE059A06990798FFF70AFF00BF0BB041
:10A00C0030BD00BF380C0400100C04001C170400F9
:10A01C003C170400601704007C170400A41704000C
:10A02C00B8170400F0ED00E02DE9F04383B01448BC
:10A03C0001F09DF8034600221C461546114BD3E94E
:10A04C00002314EB020845EB0309CDE900890E4B04
:10A05C00D3E90023DDE90001904271EB030307D241
:10A06C00DDE9002312F1807643F10007CDE90067AA
:10A07C00DDE900231046194603B0BDE8F08300BFAC
:10A08C0070230020104400201844002088B0019058
:10A09C000091019B0793009B0693079BD3E9022336
:10A0AC00CDE90423069BD3E90223CDE90223DDE9A4
:10A0BC000423DDE90201904271EB03032CBF012361
:10A0CC000023DBB2184608B070470000F0B585B02D
:10A0DC000190019B5B69002B03D14349A52009F03A
:10A0EC00CBFA00238DF80F30404B1B78002B75D02A
:10A0FC00019B002B72D0FFF797FF019BD3E9022342
:10A10C00904271EB030358D300238DF80D300DF101
:10A11C000D03184600F01AFC019B1B69002B06D19D
:10A12C0001994FF0FF324FF0FF33C1E902239DF844
:10A13C000D30184600F020FC019B5B69019A926976
:10A14C001046984700238DF80C3003AB184600F0EE
:10A15C00FDFB019B1B69002B1AD0019BD3E9022349
:10A16C00B3F1FF3F08BFB2F1FF3F11D0019BD3E920
:10A17C0002230199096900200C460546161943EB88
:10A18C000507019BC3E9026701238DF80E3002E03D
:10A19C0000238DF80E309DF80C30184600F0ECFBC7
:10A1AC009DF80E30002B19D0019B1946104805F074
:10A1BC0007F801238DF80F3010E0019BD3E902233F
:10A1CC00B3F1FF3F08BFB2F1FF3F07D0019B194627
:10A1DC00074804F0F5FF01238DF80F309DF80F3080
:10A1EC00184605B0F0BD00BFDC1704000C4400207D
:10A1FC003018040030B58BB0019000910D230993F9
:10A20C00009B00221A70019BD3E90223CDE906239F
:10A21C00FFF70AFFDDE90623141A63EB0105CDE90C
:10A22C000445DDE90423012A73F1000318DB049BC8
:10A23C00B3F5350F05D300F00BFB0246144B13445A
:10A24C0000E0069B03934FF49603039A00211148F8
:10A25C0000F080FE0990099B002B05D1012314E02E
:10A26C0000210C4800F04EFF099B0D2B07D10198E3
:10A27C00FFF72CFF03461A46009B1A7004E00649B0
:10A28C004FF4867009F0F8F9002318460BB030BD76
:10A29C00FFFFB40070230020DC17040000B583B06E
:10A2AC00044804F0C7FF0190019B184603B05DF809
:10A2BC0004FB00BF3018040000B583B0044804F060
:10A2CC00DBFF0190019B184603B05DF804FB00BF57
:10A2DC003018040000B583B0FFF7E0FF0190019B3C
:10A2EC00002B06D001994FF0FF324FF0FF33C1E93C
:10A2FC000223019B002BEFD100BF00BF03B05DF820
:10A30C0004FB0000054BD3E9002312F1807043F1EC
:10A31C000001024BC3E9000100BF7047104400204C
:10A32C0010B582B00190124B1B68002B1DD0019808
:10A33C0000F01DFF04460021019800F009FF0346C0
:10A34C001946204600F078FA0346B3F5960F04D36D
:10A35C00084940F2411009F08FF9054B1B6818466B
:10A36C00FFF7B4FE024B00221A6000BF02B010BD12
:10A37C0008440020DC17040000B583B00190FFF7FF
:10A38C0053FE02460B460349C1E9002300BF03B04C
:10A39C005DF804FB1844002000B587B00190FFF76E
:10A3AC008BFF049000238DF81730049B002B58D0A2
:10A3BC00049BD3E90223B3F1FF3F08BFB2F1FF3F87
:10A3CC0002D1FFF76BFF54E02E4B1B68002B03D11F
:10A3DC0001238DF817301DE0049BD3E90201294BB2
:10A3EC001B68D3E90223904271EB030312D20123C1
:10A3FC008DF81730234B1B68D3E90223B3F1FF3FD1
:10A40C0008BFB2F1FF3F05D01E4B1B6819461E4812
:10A41C0004F0D6FE9DF81730002B2BD0FFF73EFF33
:10A42C0004900DF10F0319460498FFF7E3FE034661
:10A43C00002B12D0134B1B68002B02D1019800F09B
:10A44C0095FC104A049B13609DF80F3083F00103B8
:10A45C00DBB2002BA3D000BF0FE00A4B00221A6026
:10A46C009DE7084B1B68002B06D1019800F094FC6B
:10A47C0002E094E700BF00E000BF00BF07B05DF84A
:10A48C0004FB00BF084400203018040000B587B05E
:10A49C0001902B4A03AB1946104602F01EFF0490A4
:10A4AC0045E0049B1B78022B2BD0022B2FDC002BBE
:10A4BC0002D0012B11D02AE0049B5B68D3E9022364
:10A4CC00B3F1FF3F08BFB2F1FF3F22D0049B5B68A2
:10A4DC0019461C4804F074FE1BE0049B5A681A4B86
:10A4EC001B689A4203D1184B00221A6012E0049B9D
:10A4FC005B681946134804F0D3FE03468DF81730F9
:10A50C0008E0FFF7E7FE114B01221A7002E000BFD2
:10A51C0000E000BF0A4A03AB1946104602F0F6FEF3
:10A52C00074A03AB1946104602F0D7FE0490049B71
:10A53C00002BB6D100BF00BF07B05DF804FB00BF15
:10A54C007844002030180400084400200C440020FB
:10A55C0000B583B00190019800F0C7FD0346002BB5
:10A56C0001D0FFF7CFFE0021019800F0DCFD03467F
:10A57C00002B02D00198FFF7D3FE0121019800F0C7
:10A58C00D2FD0346002B02D00198FFF7F5FE01988F
:10A59C00FFF77CFF0198FFF7FFFE00BF03B05DF8EB
:10A5AC0004FB000008B5024800F0EEFD00BF08BD3A
:10A5BC007023002000B585B0034600918DF807305C
:10A5CC00114A02AB1946104602F05AFE0390039B47
:10A5DC00002B13D0039B9DF807201A70039B009A45
:10A5EC005A60094A02AB1946104602F062FE034655
:10A5FC00002B01D0FFF7D6FF002300E00423184600
:10A60C0005B05DF804FB00BF7844002000B583B0B2
:10A61C00164B1B680093164808235822154902F064
:10A62C00E8FD0190019B002B01D0019B19E06B46CA
:10A63C00114A1946114800F01BFB0190019B002B9D
:10A64C0001D0019B0DE001210C4800F03DFD0123E0
:10A65C000B4A0121094800F0B5FB0A4B01221A7084
:10A66C00019B184603B05DF804FB00BF2C180400D6
:10A67C0078440020204400205DA5020070230020B7
:10A68C00FFFF7F000C44002000B587B003900B4601
:10A69C0001928DF80B30039B002B04D1164940F22C
:10A6AC005A2008F0E9FF019B002B04D1124940F21B
:10A6BC005B2008F0E1FF019B002B01D1072317E081
:10A6CC00039B1B68059305994FF0FF324FF0FF3346
:10A6DC00C1E90223059B019A5A619DF80B30012BAD
:10A6EC000CBF01230023DBB21A46059B1A61002321
:10A6FC00184607B05DF804FBDC170400F0B589B010
:10A70C00039002910192039B002B04D1264940F245
:10A71C006B2008F0B1FF039B069300238DF81730D4
:10A72C000DF11703184600F011F9069BD3E902232B
:10A73C00B3F1FF3F08BFB2F1FF3F11D1FFF774FC3B
:10A74C0002460B46029900200C460546161943EBAF
:10A75C000507069BC3E9026701238DF81F3002E051
:10A76C0000238DF81F309DF81730184600F004F9BF
:10A77C009DF81F3083F00103DBB2002B01D00023C6
:10A78C000EE0069B019A9A61069B1B69002B02D076
:10A79C00069B029A1A6106990020FFF70BFF0346ED
:10A7AC00184609B0F0BD00BFDC17040000B587B037
:10A7BC000190019B002B04D11E4940F2932008F01C
:10A7CC005BFF019B049300238DF80F300DF10F03F9
:10A7DC00184600F0BBF8049BD3E90223B3F1FF3F0A
:10A7EC0008BFB2F1FF3F03D100238DF8173009E009
:10A7FC0004994FF0FF324FF0FF33C1E902230123DC
:10A80C008DF817309DF80F30184600F0B5F89DF80C
:10A81C00173083F00103DBB2002B01D0002304E0DE
:10A82C0004990120FFF7C6FE0346184607B05DF8F1
:10A83C0004FB00BFDC17040082B001900091019A68
:10A84C00009BD31A23F07F43184602B070470000D8
:10A85C0008B5034800F08BFC0346184608BD00BF42
:10A86C007023002082B0EFF310830093009B0193C0
:10A87C0072B600BF019B184602B0704762B600BFAB
:10A88C0000BF704700B585B00190FFF7EBFF039058
:10A89C00164B9B68002B1BD1144B01229A60144B56
:10A8AC00D3F88020134B1340104A1360104B114AFD
:10A8BC00C3F880200E4BD3F884300C4A53600C4BF9
:10A8CC004FF0FF32C3F88420019B00221A7002E083
:10A8DC00019B01221A70039B002B01D1FFF7CEFFC5
:10A8EC000023184605B05DF804FB00BF8C44002023
:10A8FC0000E100E0FC06FFBD00B585B003468DF815
:10A90C000730104B9B68002B16D09DF80730002B9E
:10A91C0012D1FFF7A7FF03900B4A0A4B1B68136079
:10A92C00094A084B5B685360064B00229A60039BF4
:10A93C00002B01D1FFF7A2FF0023184605B05DF8EC
:10A94C0004FB00BF8C44002000E100E000B583B0A4
:10A95C00019000F02BF80346012B03D0054943204E
:10A96C0008F08AFE0198FFF78DFF00BF03B05DF879
:10A97C0004FB00BF3C18040000B583B003468DF8FF
:10A98C00073000F013F80346012B03D00649512081
:10A99C0008F072FE9DF807301846FFF7ADFF00BFB8
:10A9AC0003B05DF804FB00BF3C18040084B0EFF367
:10A9BC0005830193019BC3F308030393039B002BB3
:10A9CC000DD1EFF314830093009B0293029B03F0D1
:10A9DC000103002B0CBF01230023DBB200E0012399
:10A9EC00184604B07047000082B003468DF807305B
:10A9FC009DF90730002B0CDB9DF8073003F01F028C
:10AA0C0005499DF907305B09012000FA02F241F873
:10AA1C00232000BF02B0704700E100E082B0034683
:10AA2C008DF807309DF90730002B0DDB9DF80730B2
:10AA3C0003F01F0206499DF907305B09012000FA5B
:10AA4C0002F2403341F8232000BF02B0704700BF30
:10AA5C0000E100E082B0034600918DF807309DF9CB
:10AA6C000730002B0ADB009BDAB20C499DF907304A
:10AA7C005201D2B20B4483F800230BE0009BDAB2F4
:10AA8C0007499DF8073003F00F03043B5201D2B283
:10AA9C000B441A7600BF02B0704700BF00E100E023
:10AAAC0000ED00E000B583B003460A468DF8073090
:10AABC0013468DF806309DF80630012B03D99DF80E
:10AACC000630032B0BD99DF80630042B03D99DF8C7
:10AADC000630072B03D908496B2008F0CDFD9DF8F3
:10AAEC0006209DF9073011461846FFF7B3FF00BF4B
:10AAFC0003B05DF804FB00BF9018040000B583B0F0
:10AB0C0003468DF807309DF907301846FFF76CFFA8
:10AB1C0000BF03B05DF804FB00B585B00190019B4C
:10AB2C00002B0AD0074B43F001030393019B9B01BD
:10AB3C000293039B0298984700E000BF05B05DF8B4
:10AB4C0004FB00BF9019040084B0039002910192A1
:10AB5C00039B029A02F5A872019943F8221000BFD8
:10AB6C0004B0704782B001900091019B009A02F5ED
:10AB7C00A87253F82230184602B0704782B0019088
:10AB8C000091019B009AC3F8042300BF02B07047E8
:10AB9C0082B001900091019B009AC3F8082300BF7A
:10ABAC0002B0704782B001900B46ADF80230BDF890
:10ABBC000230019A13441B68184602B0704784B0E7
:10ABCC0001900B46ADF80230BDF80230019A1344E7
:10ABDC0000221A60BDF80230019A13441B680393DB
:10ABEC00039B00BF04B0704782B00190019BD3F867
:10ABFC000435184602B0704700B583B0019000913F
:10AC0C00009BB3F5805F04D306494FF4BE7008F087
:10AC1C0033FD019B009AC3F8082500BF03B05DF813
:10AC2C0004FB00BFC018040082B001900B468DF8E5
:10AC3C0003309DF80320019B13441A460123136033
:10AC4C0000BF02B0704782B001900091019B009A46
:10AC5C00C3F8442300BF02B0704782B0019000914A
:10AC6C00019B009AC3F8482300BF02B07047000054
:10AC7C0000B587B0039002910192039B002B03D186
:10AC8C003349552008F0F8FC029B002B03D13049C6
:10AC9C00562008F0F1FC019B002B03D12C495720C6
:10ACAC0008F0EAFC039B5B7919462A4A019B42F89F
:10ACBC002130039B5B79284ADB0013441B79002B62
:10ACCC000ED008230593254A254BD31ADB081B0409
:10ACDC0043F0020323491846FDF704F9059B32E0C3
:10ACEC00039B1A68029B1B8819461046FFF784FFCA
:10ACFC00039B93F90420029B9B7819461046FFF79F
:10AD0C00D1FE039B93F904301846FFF7F7FE039B23
:10AD1C005B79114ADB00134401221A71039B5B79A6
:10AD2C0019460D4A039B42F83130002305930B4A18
:10AD3C000B4BD31ADB081B0443F003030A491846D8
:10AD4C00FDF7D0F8059B184607B05DF804FB00BF73
:10AD5C00F0180400984400209C440020480C040087
:10AD6C00100C04003C1904006019040000B583B0F9
:10AD7C000190019B002B03D10649872008F07CFC35
:10AD8C00019B1B6800211846FFF74EFF00BF03B064
:10AD9C005DF804FBF018040000B583B00190019B32
:10ADAC00002B03D106498D2008F066FC019B1B6823
:10ADBC0004211846FFF738FF00BF03B05DF804FB11
:10ADCC00F018040000B587B00390029101928DF841
:10ADDC000330039B002B03D12149962008F04CFC37
:10ADEC004FF48032029B02FA03F30593029B50331B
:10ADFC009BB29B00ADF81230019B23F07F43019373
:10AE0C00039B1B6805991846FFF7C2FE039B1B6842
:10AE1C0005991846FFF721FF039B1B68BDF812200C
:10AE2C0011461846FFF7CBFE039B1B68019A02994B
:10AE3C001846FFF789FE039B1B6805991846FFF718
:10AE4C0002FF9DF80330002B05D0039B1B6805996E
:10AE5C001846FFF793FE00BF07B05DF804FB00BF78
:10AE6C00F018040000B585B00390029113468DF8DC
:10AE7C000730039B002B03D10B49A92008F0FCFBE6
:10AE8C00039B1B6802991846FFF7DDFE9DF80730FF
:10AE9C00002B05D0039B1B6802991846FFF76EFE2A
:10AEAC0000BF05B05DF804FBF018040000B583B0DA
:10AEBC0001900091019B002B03D10A49B32008F0AB
:10AECC00DBFB019B1B6800991846FFF7C6FE019B34
:10AEDC001B6800991846FFF75BFE00BF03B05DF8D6
:10AEEC0004FB00BFF018040000B583B001900B46C2
:10AEFC00ADF80230019B002B03D10F49BA2008F0AA
:10AF0C00BBFB019B1B68BDF8022011461846FFF7DE
:10AF1C0049FE0346002B09D0019B1B68BDF802209B
:10AF2C0011461846FFF74BFE012300E0002318469C
:10AF3C0003B05DF804FB00BFF018040082B0019070
:10AF4C000091019A009BD31A23F07F43184602B05C
:10AF5C007047000000B58BB00390029101920093F2
:10AF6C00039B002B03D15749CD2008F085FB4FF4F0
:10AF7C008032029B02FA03F30993029B50339BB27B
:10AF8C009B00ADF82230019B23F07F43019309997C
:10AF9C000398FFF78BFF039B1B681846FFF724FEF3
:10AFAC000790039B1B6802991846FFF7DBFD069080
:10AFBC00039B1B68079A02991846FFF7C5FD039B74
:10AFCC001B68BDF8222011461846FFF7F8FD0799BB
:10AFDC000698FFF7B3FF0346012B0AD11020FFF7A9
:10AFEC009BFD039B1B68BDF8222011461846FFF7FA
:10AFFC00E6FD039B1B681846FFF7F6FD07900799C3
:10B00C000198FFF79BFF0590039B1B680999184655
:10B01C00FFF719FE059B012B15D1039B1868019BAB
:10B02C0001331A460299FFF78FFD1020FFF774FDCC
:10B03C00039B1B681846FFF7D7FD0246079B9342FC
:10B04C0035D00D2339E0039B1B68019A02991846F1
:10B05C00FFF77AFD039B1B681846FFF7C5FD0790A9
:10B06C00019B013B07991846FFF768FF0590009B71
:10B07C00C3F1FF1303F57F43059A9A4201D90D23BF
:10B08C001BE0059B002B12D1039B1868019B01331D
:10B09C001A460299FFF758FD039B1B681846FFF7E9
:10B0AC00A3FD0246079B934201D00D2305E001222C
:10B0BC0009990398FFF7D6FE002318460BB05DF8EC
:10B0CC0004FB00BFF018040000B583B001900B46E0
:10B0DC008DF803309DF803301A4602210198FFF7D2
:10B0EC00C1FE00BF03B05DF804FB00B583B0019056
:10B0FC004FF482710198FFF7F7FE0346184603B030
:10B10C005DF804FB00B583B0019000914FF48032E0
:10B11C00009B02FA03F319460198FFF7C7FE00BF24
:10B12C0003B05DF804FB00B585B001900091009B65
:10B13C0050339BB29B00ADF80E30BDF80E30194663
:10B14C000198FFF7D1FE0346184605B05DF804FBE5
:10B15C0000B583B001900091019B1B6800991846C3
:10B16C00FFF700FD0346184603B05DF804FB00B57D
:10B17C0083B00190019B1B681846FFF735FD034611
:10B18C00184603B05DF804FB00B583B00190019B39
:10B19C0093F904301846FFF741FC00BF03B05DF88B
:10B1AC0004FB000008B5044B1B68044A12681046E7
:10B1BC00984700BF08BD00BF984400209C44002065
:10B1CC0082B00190019B03F00303002B0CBF012301
:10B1DC000023DBB2184602B07047000000B585B002
:10B1EC000190002303930EE00B4A039B52F823308B
:10B1FC00002B05D0084A039B52F82330019898473E
:10B20C00039B01330393039B032BEDD900BF00BFBA
:10B21C0005B05DF804FB00BFB444002082B001907F
:10B22C000091019B1B78013B052B61D801A252F8C0
:10B23C0023F000BF59B2020061B2020087B20200D3
:10B24C00B9B20200D9B20200F5B20200009B002292
:10B25C001A704EE0009B01221A70019B1A89009B08
:10B26C009A81019B9A88009BDA81019BDA68009B8A
:10B27C009A60009B00221A743BE0009B02221A7019
:10B28C00019B1A89009B9A81019B9A88009BDA8109
:10B29C00019BDA68009B9A60019B9B7D062B0CBF7F
:10B2AC0001230023DAB2009B1A7422E0009B0322D4
:10B2BC001A70019BDA88009B9A81019B1A89009B6A
:10B2CC00DA81019BDA68009B9A6012E0009B0422F1
:10B2DC001A70019BDA88009B9A81009B0022DA810C
:10B2EC00009B00229A6004E0009B05221A7000E08B
:10B2FC0000BF00BF02B0704784B001900091019B69
:10B30C000393039A009B9A4206D2039B1B68B3F1EA
:10B31C00FF3F01D0012300E0002303F00103DBB267
:10B32C00184604B0704782B00190019B5B880333D0
:10B33C009B00019A1344184602B0704700B583B0C5
:10B34C00019000910198FFF7EEFF0246009B93429B
:10B35C0001D2022311E0019B9B884FF6FF729342AE
:10B36C0008D0019B1B88002B04D0019B9B68B3F178
:10B37C00FF3F01D1012300E00023184603B05DF824
:10B38C0004FB000000B583B00190019B002B13D08F
:10B39C000D4BDB681A46019B93420DD30A4B1B697C
:10B3AC001A46019B934207D80198FFF709FF034601
:10B3BC00002B01D0012300E0002303F00103DBB2DA
:10B3CC00184603B05DF804FB7022002082B0019097
:10B3DC00019B002B04D0019B1B680B4A934201D0AC
:10B3EC0003230DE0019B04331B68084A934204D0ED
:10B3FC00074A934203D1012302E0002300E0032318
:10B40C00184602B0704700BFDEC0ADDEFE011EF173
:10B41C00FF011EF184B00190019B1B68B3F1FF3F4B
:10B42C0006D0019B1B680E4A934201D0002314E006
:10B43C00012303930CE0039B9B00019A13441B68AC
:10B44C00B3F1FF3F01D0002307E0039B01330393CB
:10B45C00039BB3F5806FEED30123184604B07047FD
:10B46C00DEC0ADDE82B003460A46ADF806301346A8
:10B47C00ADF80430BDF80620134913469B00134465
:10B48C009B000B4408331A88BDF804301344ADF804
:10B49C000430BDF806200C4913469B0013449B0056
:10B4AC000B440A331A88BDF804301344ADF8043049
:10B4BC00BDF80430B3F5806F94BF01230023DBB2D9
:10B4CC00184602B0704700BF6445002084B001905C
:10B4DC00009148F2096303930023ADF80A3027E08A
:10B4EC00BDF80A20164913469B0013449B000B44DD
:10B4FC0004331B68009A9A4215D9BDF80A201049EA
:10B50C0013469B0013449B000B4404331B6803F548
:10B51C008053009A9A4206D200230393019BBDF8F4
:10B52C000A201A8008E0BDF80A300133ADF80A3061
:10B53C00BDF80A30012BD3D9039B184604B07047D1
:10B54C006445002000B589B0039002910192039BE1
:10B55C0003F580530693039B08330393029B02224B
:10B56C001A80039B079332E006990798FFF7E6FED3
:10B57C0003468DF817309DF81730002B0AD1079B26
:10B58C009A68184B1B689A4213D9079B9B68154AFB
:10B59C0013600EE0019B002B02D0019B01221A705C
:10B5AC009DF81730022B04D1029B4FF480621A8055
:10B5BC0014E0029B1A88079B5B8813449BB20333ED
:10B5CC009AB2029B1A800798FFF7ADFE0790069976
:10B5DC000798FFF791FE0346002BC5D109B05DF823
:10B5EC0004FB00BFC444002082B001900091009B7A
:10B5FC009B7D022B09D9019B1A89009BDB88134484
:10B60C009BB203339AB2019B1A81019B5A89009B0E
:10B61C00DB88D31A9BB2033B9AB2019B5A8100BFC1
:10B62C0002B0704700B583B0074B1B681946002366
:10B63C0000930823054A064802F050FD03461846BD
:10B64C0003B05DF804FB00BF8C450020E01904003A
:10B65C007022002000B585B003900399002300935D
:10B66C000823044A044802F039FD0346184605B085
:10B67C005DF804FBE81904007022002000B585B0C9
:10B68C0003460091ADF8063000238DF80F30BDF85D
:10B69C0006300333ADF80A30BDF80A3040F2FE3202
:10B6AC00934202D948F208634BE00023ADF80C300A
:10B6BC003BE0BDF80C20254913469B0013449B002E
:10B6CC000B441B78002B2BD1BDF80A20BDF80C3095
:10B6DC0011461846FFF7C6FE0346002B20D0012367
:10B6EC008DF80F30009BBDF80C201A80BDF80C2093
:10B6FC00164913469B0013449B000B440A331988CC
:10B70C00BDF80C20BDF80A300B4498B20F49134613
:10B71C009B0013449B000B440A3302461A8008E03A
:10B72C00BDF80C300133ADF80C30BDF80C30012BEA
:10B73C00BFD99DF80F30002B01D0002301E048F257
:10B74C000663184605B05DF804FB00BF6445002095
:10B75C0082B003460A46ADF806301346ADF8043005
:10B76C00BDF804200D4913469B0013449B000B4469
:10B77C000A331A88BDF80630D31A9BB2BDF80420E0
:10B78C00033B98B2054913469B0013449B000B44A2
:10B79C000A3302461A8000BF02B07047644500208D
:10B7AC0008B50121024801F020FF0346184608BDE8
:10B7BC00C444002000B585B003460091ADF80630B6
:10B7CC00BDF80620244913469B0013449B000B44F0
:10B7DC0004331B6803F580530293009B1B6803938F
:10B7EC00039B002B04D00398FFF79DFD039026E0EC
:10B7FC00BDF80620184913469B0013449B000B44CC
:10B80C0004331B680833039319E002990398FFF77C
:10B81C0095FD0346022B10D0022B10DC002B02D01E
:10B82C00012B05D00BE0009B039A1A6001230EE05C
:10B83C000398FFF778FD039001E0002307E00299DD
:10B84C000398FFF759FD0346002BDED10023184661
:10B85C0005B05DF804FB00BF6445002000B585B061
:10B86C0001900091019B5B681846FFF78BFD034626
:10B87C00002B19D0019B1A89244B1B899A4213D196
:10B88C00019B1A68019B5B689B689A420CD1019BD7
:10B89C005B6819460098FFF719FE0346002B0CBF96
:10B8AC0001230023DBB22CE0009B00221A8023E052
:10B8BC000023029310E0029B0393039B9A68019B65
:10B8CC001B689A4208D1029A019B5A600F4B1A8945
:10B8DC00019B1A81012314E0009B1B8802AA1146CC
:10B8EC001846FFF767FF0346002BE4D1009B1B882B
:10B8FC0001339AB2009B1A80009B1B88012BD7D96D
:10B90C000023184605B05DF804FB00BF94450020E9
:10B91C0000B587B00390029101920093324B1B78D3
:10B92C00DBB283F00103DBB2002B02D048F20163DF
:10B93C0055E0019B002B02D0009B002B49D148F213
:10B94C0004634CE0009B9B881946284A0B469B00DD
:10B95C000B449B0013441B78002B33D124E0009B39
:10B96C001B680593039B002B06D0059B9A88039BB1
:10B97C001B889A4200D017E0029B002B06D0059B37
:10B98C001A88029B1B889A4200D00DE0059B9A688E
:10B99C00019B1A60009B1A68019B5A60144B1A8910
:10B9AC00019B1A8100231AE0009B9B88009A114688
:10B9BC001846FFF7FFFE0346002BD0D1009B002258
:10B9CC001A6000E000BF009B9B8801339AB2009B79
:10B9DC009A80009B9B88012BB4D948F209631846C6
:10B9EC0007B05DF804FB00BFA444002064450020B0
:10B9FC009445002000B587B0029101920093034654
:10BA0C00ADF80E30BDF80E20324913469B0013449E
:10BA1C009B000B4404331B6808330593BDF80E20C0
:10BA2C002C4913469B0013449B000B4404331B68A6
:10BA3C0003F58053049342E004990598FFF77EFCCC
:10BA4C000346022B25D0022B38DC002B16D0012B01
:10BA5C0034D1019B1B8801339AB2019B1A80009B45
:10BA6C001A88059B5B8813449BB203339AB2009BE4
:10BA7C001A800598FFF757FC059020E0029B1B8865
:10BA8C0001339AB2029B1A800598FFF74CFC059083
:10BA9C0015E0019B1B8801339AB2019B1A80009B15
:10BAAC001A880499059BCB1A9B109BB213449AB22B
:10BABC00009B1A80089B01221A7007E000BF0499B2
:10BACC000598FFF719FC0346002BB5D107B05DF8BC
:10BADC0004FB00BF6445002000B585B00190084B05
:10BAEC000199184601F0CCFB03901C22002103980D
:10BAFC0013F014FB039B184605B05DF804FB00BF64
:10BB0C005445002000B583B00190044B01991846B0
:10BB1C0001F0CFFB00BF03B05DF804FB54450020DF
:10BB2C0000B583B00190054B0199184601F0D5FB87
:10BB3C000346184603B05DF804FB00BF54450020D3
:10BB4C0000B583B00190044B0199184601F0DEFB5F
:10BB5C0000BF03B05DF804FB5445002008B50A4B48
:10BB6C001B68002B04D109494FF4247007F084FDA5
:10BB7C000121054801F051FD0346002B14BF0123A0
:10BB8C000023DBB2184608BDAC4400209819040011
:10BB9C0000B587B0002305930023ADF812300323C2
:10BBAC00ADF8103000238DF80F300023ADF80C30B9
:10BBBC00F7E0BDF80C301A03824BDB681344029398
:10BBCC000298FFF703FC03468DF807309DF8073009
:10BBDC00032B08D0032B00F3DE80002B65D0012B48
:10BBEC0000F09880D7E00298FFF714FC0346002B76
:10BBFC003BD0754B1B68002B29D0BDF81220734924
:10BC0C0013469B0013449B000B4402221A70BDF890
:10BC1C0012206E4913469B0013449B000B440433C3
:10BC2C00029A1A60BDF81220684913469B0013440F
:10BC3C009B000B44083302221A80654ABDF812306F
:10BC4C005380BDF812300133ADF8123008E05E4A73
:10BC5C00029B13605C4B02229A8001238DF80F30FB
:10BC6C00059B43F00103059396E0BDF81030013BB2
:10BC7C00ADF81030BDF81220544913469B00134404
:10BC8C009B000B440433029A1A60BDF812204F49F2
:10BC9C0013469B0013449B000B4403221A70BDF8FF
:10BCAC0012300133ADF8123076E0BDF8122047495E
:10BCBC0013469B0013449B000B4400221A70BDF8E2
:10BCCC001220424913469B0013449B000B4404333F
:10BCDC00029A1A60BDF8122013469B0013449B0075
:10BCEC0008333A4A9918BDF8122013469B001344A6
:10BCFC009B001033354A13441A460298FFF722FC76
:10BD0C00059B43F002030593BDF812300133ADF8E7
:10BD1C00123041E09DF80F30002B29D0BDF81220D5
:10BD2C002A4913469B0013449B000B4402221A70B1
:10BD3C00BDF81220244B1968244813469B00134469
:10BD4C009B00034404331960BDF812201F491346AD
:10BD5C009B0013449B000B44083302221A801C4A9C
:10BD6C00BDF812305380BDF812300133ADF81230EB
:10BD7C00154A029B1360002216490298FFF7E2FB5A
:10BD8C00114B9B88022B01D1042300E00823059A58
:10BD9C001343059300E000BFBDF80C300133ADF840
:10BDAC000C30BDF80C30022B7FF603AFBDF8103011
:10BDBC00012B01D800230593059BDBB2184607B075
:10BDCC005DF804FB702200208C45002064450020A7
:10BDDC00944500209045002000B587B00390029157
:10BDEC00039B02229A750299039B1A1D0023009350
:10BDFC000423074802F072F90590059B002B01D132
:10BE0C00002301E048F20D63184607B05DF804FB0F
:10BE1C007022002000B587B003900291039B1B6930
:10BE2C00002B01D0032200E00122039B9A75029B98
:10BE3C0008331946039B03F10C02002300930423DF
:10BE4C00074802F04BF90590059B002B01D100230C
:10BE5C0001E048F20D63184607B05DF804FB00BF23
:10BE6C007022002000B587B003900291039B1B78D1
:10BE7C00032B01D1052200E00622039B9A75029B3D
:10BE8C0004331946039B03F1080200230093042397
:10BE9C00074802F023F90590059B002B01D10023E4
:10BEAC0001E048F20D63184607B05DF804FB00BFD3
:10BEBC007022002000B587B003900B46ADF80A3015
:10BECC0003990023009304230D4A0E4802F006F94F
:10BEDC000590059B002B02D048F20D630BE0BDF8DA
:10BEEC000A20094913469B0013449B000B44103352
:10BEFC0001221A700023184607B05DF804FB00BF3E
:10BF0C00F0190400702200206445002000B589B0AF
:10BF1C00019002AB00221A605A609A60019BDB68A8
:10BF2C0002930DF1160202AB11461846FFF796FC70
:10BF3C000346002B12D0039B0693069B9A88019B09
:10BF4C00DA80069B1A88019B1A81039BBDF8162088
:10BF5C0011461846FFF7AEFF079002E048F209635E
:10BF6C000793079B184609B05DF804FB00B587B032
:10BF7C000190019B981D02AA0D4B0021FFF7C8FCF4
:10BF8C000590059B002B08D1039B094A928811460A
:10BF9C001846FFF78FFF059004E0082200210448A3
:10BFAC0013F0BCF8059B184607B05DF804FB00BF06
:10BFBC00A445002000B587B003900291039B012299
:10BFCC009A75029B0C331846039B1A69039BDB88FA
:10BFDC009B00002100910146074802F07FF8059074
:10BFEC00059B002B01D1002301E048F20D6318469C
:10BFFC0007B05DF804FB00BF7022002082B0184B24
:10C00C001B8901339AB2164B1A81154B00225A80A8
:10C01C00134B00221A730023ADF8063018E0BDF85C
:10C02C000620104913469B0013449B000B441A78BE
:10C03C00BDF80630002A0CBF01220022D1B2084AFA
:10C04C0013440A469A72BDF806300133ADF8063037
:10C05C00BDF80630012BE2D900BF00BF02B070471B
:10C06C00944500206445002084B0019000238DF895
:10C07C000F300023ADF80C3031E0BDF80C301C4A09
:10C08C0013449B7A002B25D0BDF80C30184A13446E
:10C09C0000229A72BDF80C20164913469B001344DB
:10C0AC009B000B440C331B68002B13D1BDF80C20E8
:10C0BC00104913469B0013449B000B4410331B7810
:10C0CC00002B07D0019BBDF80C201A8001238DF8A2
:10C0DC000F3008E0BDF80C300133ADF80C30BDF872
:10C0EC000C30012BC9D99DF80F30184604B070479D
:10C0FC00944500206445002008B5084B05221A70B1
:10C10C00074B02229A80064B1B681946002301221A
:10C11C00044802F0C5F80346184608BD94450020B3
:10C12C008C4500207022002000B583B0164B5B8834
:10C13C00ADF80230BDF80220144913469B0013449D
:10C14C009B000B440C331B68002B14D10E4B0422A8
:10C15C001A70BDF802200D4913469B0013449B0036
:10C16C000B4404331B68194600230122084802F0D3
:10C17C0097F8019002E0FFF7BFFF0190019B184672
:10C18C0003B05DF804FB00BF94450020644500201B
:10C19C007022002000B587B0104B5B680593104BE4
:10C1AC001A680F4B9B889B0013440493059B5B8878
:10C1BC000333ADF80E30094B03221A700499074B68
:10C1CC005A68BDF80E309B0000200090054801F025
:10C1DC0085FF0346184607B05DF804FB9445002024
:10C1EC008C4500207022002000B583B00A4B5B8880
:10C1FC000A491846FFF7DEFA0346002B03D0FFF777
:10C20C00C9FF019002E0FFF78FFF0190019B1846D8
:10C21C0003B05DF804FB00BF944500209845002056
:10C22C0008B50A4B06221A70084B5B881946084A57
:10C23C000B469B000B449B00134404331B681846AD
:10C24C00FFF708FA0346184608BD00BF94450020C6
:10C25C006445002008B5054B07221A70034B0022D9
:10C26C005A60FFF7DFF90346184608BD94450020D5
:10C27C0008B50D48FFF7F8FE034683F00103DBB267
:10C28C00002B0BD0094B00221A70084B00225A804D
:10C29C00064B00225A6041F61D5302E0FFF7A4FF43
:10C2AC000346184608BD00BF964500209445002063
:10C2BC0082B0094B5B680193019B5B880333ADF83B
:10C2CC000230064B9A88BDF8023013449AB2034BE5
:10C2DC009A8000BF02B07047944500208C45002026
:10C2EC0082B01E4B1B6801931D4B5B8819461D4A7F
:10C2FC000B469B000B449B00134404331B68174AEA
:10C30C001360174B5B881946164A0B469B000B446F
:10C31C009B0013440433019A1A60114B5B88194635
:10C32C000E4B98880F4A0B469B000B449B00134402
:10C33C00083302461A80094B02229A80084B5B880C
:10C34C001946084A0B469B000B449B0013441033C0
:10C35C0000221A7000BF02B0704700BF8C4500204D
:10C36C00944500206445002008B51A4B1B78072B18
:10C37C002CD801A252F823F0A5C30200D9C30200A5
:10C38C00D9C30200B1C30200BDC30200C9C302007D
:10C39C00C9C30200D1C30200FFF730FE0D4B0122CE
:10C3AC001A7014E0FFF784FF0A4B02221A700EE099
:10C3BC00FFF796FF074B06221A7008E0054B072281
:10C3CC001A7004E0034B01221A7000E000BF00BF9A
:10C3DC0008BD00BF9445002000B587B001900091C6
:10C3EC0048F20E630593019B002B05D0624B002293
:10C3FC005A604FF40643BAE0009B1B79032B00F202
:10C40C00A98001A252F823F025C4020033C4020013
:10C41C00C1C40200E1C40200009B01221A71FFF7A3
:10C42C0001F9059099E000238DF813300023ADF845
:10C43C0010302BE0BDF81020504913469B001344DC
:10C44C009B000B441B78022B1BD1BDF810204B49D1
:10C45C0013469B0013449B000B4400221A700123CB
:10C46C008DF81330BDF81020444913469B0013443B
:10C47C009B000B4404331B681846FFF7EBF8059040
:10C48C0008E0BDF810300133ADF81030BDF81030B5
:10C49C00012BCFD99DF8133083F00103DBB2002BB5
:10C4AC005AD0354B01221A70334B00225A6041F698
:10C4BC001D535CE0009B00221A71314B02229A80C2
:10C4CC002F4B1B681946002301222E4801F0E8FE71
:10C4DC00059042E0009B00221A712B4B5B88ADF853
:10C4EC000E30274B1B680293BDF80E2023491346D0
:10C4FC009B0013449B000B4404331B68204A1360BD
:10C50C00BDF80E201D4913469B0013449B000B44A1
:10C51C000433029A1A60BDF80E20194B98881749FB
:10C52C0013469B0013449B000B44083302461A80AD
:10C53C00134B02229A80BDF80E20104913469B0023
:10C54C0013449B000B4400221A700298FFF782F8E8
:10C55C00059002E000BF00E000BF059B002B05D05A
:10C56C00054B00225A6048F20D6300E00023184688
:10C57C0007B05DF804FB00BFA44400206445002014
:10C58C008C450020702200209445002000B587B017
:10C59C0001900091009B9B8A1A4613469B00134402
:10C5AC009B003B4A13440493019B002B06D000993B
:10C5BC000498FFF719F84FF4064364E0049B5A689B
:10C5CC00049B1B899B0013440393009B9B7D062BB0
:10C5DC004DD801A252F823F029C602004DC6020024
:10C5EC0035C6020041C6020001C6020059C602004F
:10C5FC0073C60200274B00225A60009B9B69254A98
:10C60C00136025492348FFF729F9034683F00103FA
:10C61C00DBB2002B02D048F2096334E00399009896
:10C62C00FFF7DAFB059026E003990098FFF7F2FB81
:10C63C00059020E003990098FFF7BCFC05901AE0E8
:10C64C0003990098FFF70EFC059014E0009B06225E
:10C65C009A75104B5B68104A128811461846FFF702
:10C66C0029FC059007E041F61D53059303E048F2C1
:10C67C000E63059300BF059B002B03D00099049813
:10C68C00FEF7B2FF059B184607B05DF804FB00BF30
:10C69C0064450020AC450020B845002000B585B0AD
:10C6AC0001900091019B002B02D04FF4064329E02E
:10C6BC00009B1B79022B1BD0022B1DDC002B02D004
:10C6CC00012B08D018E0009B02221A710098FFF78A
:10C6DC001DFC039015E00098FFF748FC0390039BAA
:10C6EC0048F2096293420BD141F61D53039307E0C4
:10C6FC0041F61D53039304E048F20E63039300E0EC
:10C70C0000BF039B184605B05DF804FB00B585B06F
:10C71C000190019B002B02D04FF406433DE0214BCE
:10C72C001B7B002B03D01F4B00221A7301E0FFF779
:10C73C001BFE1C4B1B78013B062B29D801A252F87F
:10C74C0023F000BF6DC7020075C702007DC7020051
:10C75C0085C702009DC702008DC7020095C7020065
:10C76C00FFF786FD039017E0FFF73EFD039013E003
:10C77C00FFF710FD03900FE0FFF7D6FC03900BE0E2
:10C78C00FFF74EFD039007E0FFF764FD039003E015
:10C79C0048F20E63039300BF039B184605B05DF887
:10C7AC0004FB00BF9445002000B589B00190404BBC
:10C7BC001B68002B05D13F48FFF7B2F903463C4AF2
:10C7CC0013603B4B1B68002B04D13B494FF4B46006
:10C7DC0006F052FF364B1B681B78013B052B2CD8FF
:10C7EC0001A252F823F000BF0DC802001DC80200C0
:10C7FC001DC802002DC802002DC802003DC8020051
:10C80C002B4B1B6819460198FFF7E6FD019018E0C9
:10C81C00274B1B6819460198FFF7B8FE019010E0F2
:10C82C00234B1B6819460198FFF738FF019008E06D
:10C83C000198FFF76BFF019003E048F20E63019340
:10C84C0000BF019B002B2BD003AB00221A605A6057
:10C85C009A60DA601A61019B41F61D52934201D035
:10C86C00019B00E000230493114B1B6803AA1146A3
:10C87C001846FEF7D3FC03AB1846FEF7AFFC0C4B87
:10C88C0000221A60002301930A48FFF759F9FFF7B9
:10C89C0065F9034683F00103DBB2002B02D186E776
:10C8AC0000BF00E000BF00BF09B05DF804FB00BF93
:10C8BC00BC450020C04500209819040008B5012192
:10C8CC00054800F07AFE0346002B02D10020FFF74A
:10C8DC006BFF00BF08BD00BFAC44002000B583B0A7
:10C8EC000190019B5B681846FFF75EFF00BF03B029
:10C8FC005DF804FB00B58BB00390029101928DF8AA
:10C90C0003300023ADF824300023ADF82630534B10
:10C91C001B78DBB283F00103DBB2002B02D048F2B0
:10C92C00016397E0029B002B02D148F2046391E073
:10C93C00029B1B884FF6FF72934203D0029B5B88CD
:10C94C00002B02D148F2036384E0029B5B6818461B
:10C95C00FEF736FC034683F00103DBB2002B02D05A
:10C96C0048F2026376E0019B002B11D1029B9B687D
:10C97C00ADF826300DF11A02BDF8263011461846D6
:10C98C00FEF77CFE0890089B002B09D0089B61E009
:10C99C00019B1B88ADF81A30019B5B88ADF82630E3
:10C9AC0005AB1846FFF798F80790079B002B0AD1A8
:10C9BC00BDF81A20BDF8263011461846FEF7C8FE01
:10C9CC0048F2076346E0079B9DF803201A70079B0B
:10C9DC0000229A75BDF81A20079B9A82029B5A680E
:10C9EC00079B1A61FEF7DCFE0246079BDA60029B8E
:10C9FC001A88079B1A81029B5A88079B9A80079B6F
:10CA0C00BDF82620DA809DF80330032B06D1079B56
:10CA1C0004229A75039B1A68079B9A61079BBDF8C1
:10CA2C0024205A8105AB1846FFF76CF8039B002BAA
:10CA3C000DD0039B00225A60079BDA68039B1A6097
:10CA4C00039B00229A72064B1A89039B1A81FFF7EB
:10CA5C0035FF002318460BB05DF804FBA4440020FE
:10CA6C009445002000B585B001900C4B1B68042B3D
:10CA7C0003D148F20B6303930BE0084B1B68084986
:10CA8C00019A41F823200121044800F0AEFD002357
:10CA9C000393039B184605B05DF804FBB0440020DB
:10CAAC00B444002084B040F6F8731B68B3F1FF3F28
:10CABC0002D10F4B1B6802E040F6F8731B6803931E
:10CACC004FF080531B6902934FF080535B690193C5
